:100000000C9479000C94A1000C94A1000C94A10014
:100010000C94A1000C94A1000C94A1000C94D805A0
:100020000C94A1000C94A1000C94A1000C94A100CC
:100030000C94A1000C94A1000C94A1000C94A100BC
:100040000C9486030C94A1000C9490020C946A0208
:100050000C94A1000C94A1000C94A1000C94A1009C
:100060000C94A1000C94A100FE0B040C040C040CD5
:10007000040C040C040C040C040C040C040CCF0E33
:10008000CF0E870F6C0F9C0FAB0FC20FC80FCC0F9A
:10009000D00F0110111000000000240027002A00DA
:1000A00000000000250028002B00000000002300B5
:1000B00026002900040404040404040402020202C9
:1000C000020203030303030301020408102040801B
:1000D000010204081020010204081020000000089A
:1000E00000020100000304070000000000000000FF
:1000F000761311241FBECFEFD8E0DEBFCDBF12E0D4
:10010000A0E0B1E0E2E8FFE202C005900D92A43E5B
:10011000B107D9F724E0A4EEB2E001C01D92A636E3
:10012000B207E1F710E0C9E7D0E004C02197FE0173
:100130000E942216C837D107C9F70E94B9070C944C
:10014000BF170C940000CF92DF92EF92FF920F93B3
:100150001F93CF93DF936C017A018B01C0E0D0E055
:10016000CE15DF0589F0D8016D918D01D601ED9195
:10017000FC910190F081E02DC6010995892B11F4C5
:100180007E0102C02196ECCFC701DF91CF911F9174
:100190000F91FF90EF90DF90CF900895089580E049
:1001A00090E00895FC01538D448D252F30E0842F7D
:1001B00090E0821B930B541710F0CF96089501978F
:1001C0000895FC01918D828D981761F0828DDF0179
:1001D000A80FB11D5D968C91928D9F5F9F73928F3A
:1001E00090E008958FEF9FEF0895FC01918D828D2F
:1001F000981731F0828DE80FF11D858D90E00895FC
:100200008FEF9FEF0895FC01918D228D892F90E053
:10021000805C9F4F821B91098F739927089585EC0D
:1002200093E00E94030121E0892B09F420E0822F52
:100230000895FC01848DDF01A80FB11DA35ABF4FA3
:100240002C91848D90E001968F739927848FA689D5
:10025000B7892C93A089B1898C9180648C93938DFC
:10026000848D981306C00288F389E02D80818F7DEC
:1002700080830895EF92FF920F931F93CF93DF93A4
:10028000EC0181E0888F9B8D8C8D981305C0E889E7
:10029000F989808185FD24C0F62E0B8D10E00F5F5B
:1002A0001F4F0F731127E02E8C8DE8120CC00FB674
:1002B00007FCFACFE889F989808185FFF5CFCE0167
:1002C0000E941901F1CF8B8DFE01E80FF11DE35A59
:1002D000FF4FF0820B8FEA89FB898081806207C023
:1002E000EE89FF896083E889F98980818064808351
:1002F00081E090E0DF91CF911F910F91FF90EF90FF
:100300000895CF93DF93EC01888D8823C9F0EA89A3
:10031000FB89808185FD05C0A889B9898C9186FDFE
:100320000FC00FB607FCF5CF808185FFF2CFA889FB
:10033000B9898C9185FFEDCFCE010E941901E7CFDD
:10034000DF91CF91089580E090E0892B29F00E9401
:100350000F0181110C9400000895833081F028F47E
:10036000813099F08230A1F008958730A9F088306B
:10037000B9F08430D1F4809180008F7D03C08091EA
:1003800080008F7780938000089584B58F7702C0B6
:1003900084B58F7D84BD08958091B0008F7703C0B0
:1003A0008091B0008F7D8093B0000895CF93DF934C
:1003B000282F30E0F901E452FF4F8491F901E8530E
:1003C000FF4FD491F901EC54FF4FC491CC2391F02D
:1003D00081110E94AD01EC2FF0E0EE0FFF1FE655FA
:1003E000FF4FA591B491EC91ED2381E090E021F4D1
:1003F00080E002C080E090E0DF91CF9108953FB7A8
:10040000F8948091C1039091C203A091C303B0916D
:10041000C40326B5A89B05C02F3F19F00196A11D66
:10042000B11D3FBFBA2FA92F982F8827820F911D8A
:10043000A11DB11DBC01CD0142E0660F771F881FD1
:10044000991F4A95D1F70895CF92DF92EF92FF92CC
:10045000CF93DF93EC01072E000C880B990B0E94C1
:10046000BF146B017C0120E030E040E45FE30E94B8
:100470006F1520E030E048E452E40E9415140E9419
:100480008714C617D707D4F020E030E040EA5FE3D6
:10049000C701B6010E946F1520E030E048E452E445
:1004A0000E94151420E030E040E85FE30E94A413AE
:1004B0000E94871421E06C177D070CF420E0822F46
:1004C00090E0DF91CF91FF90EF90DF90CF90089573
:1004D0000E94BA171F920F920FB60F9211242F93FA
:1004E0003F934F935F936F937F938F939F93AF93BC
:1004F000BF93EF93FF9385EC93E00E941901FF9166
:10050000EF91BF91AF919F918F917F916F915F918B
:100510004F913F912F910F900FBE0F901F90189504
:100520001F920F920FB60F9211242F938F939F93C8
:10053000EF93FF93E091D503F091D6038081E09192
:10054000DB03F091DC0382FD12C090818091DE0319
:100550008F5F8F732091DF03821751F0E091DE03EC
:10056000F0E0EB53FC4F958F8093DE0301C0808158
:10057000FF91EF919F918F912F910F900FBE0F9050
:100580001F9018951F93CF93DF93282F30E0F90128
:10059000E452FF4F8491F901E853FF4FD491F901E0
:1005A000EC54FF4FC491CC23C9F0162F81110E9447
:1005B000AD01EC2FF0E0EE0FFF1FE056FF4FA591CD
:1005C000B4918FB7F894111105C09C91ED2FE0956F
:1005D000E92302C0EC91ED2BEC938FBFDF91CF911B
:1005E0001F910895CF93DF9390E0FC01E853FF4FF4
:1005F0002491FC01EC54FF4F8491882361F190E039
:10060000880F991FFC01EA56FF4FC591D491FC0158
:10061000E056FF4FA591B491611109C09FB7F894BE
:100620008881209582238883EC912E230BC0623031
:1006300061F49FB7F8943881822F80958323888353
:10064000EC912E2B2C939FBF06C08FB7F894E881B6
:100650002E2B28838FBFDF91CF9108958F929F9289
:10066000AF92BF92CF92DF92EF92FF926B017C012B
:100670000E94FF014B015C01C114D104E104F104AB
:10068000F1F00E94FF01DC01CB0188199909AA0948
:10069000BB09883E9340A105B10570F321E0C21A61
:1006A000D108E108F10888EE880E83E0981EA11CAD
:1006B000B11CC114D104E104F10419F7DDCFFF909E
:1006C000EF90DF90CF90BF90AF909F908F90089564
:1006D00061E08AE00E94C2028BE79AE10197F1F79C
:1006E00064E670E080E090E00E942E0360E08AE023
:1006F0000C94C2022FB7F8946091BD037091BE03B1
:100700008091BF039091C0032FBF08951F920F9255
:100710000FB60F9211242F933F938F939F93AF9314
:10072000BF938091BD039091BE03A091BF03B09190
:10073000C0033091BC0323E0230F2D3720F4019632
:10074000A11DB11D05C026E8230F0296A11DB11DF4
:100750002093BC038093BD039093BE03A093BF037B
:10076000B093C0038091C1039091C203A091C303D1
:10077000B091C4030196A11DB11D8093C103909354
:10078000C203A093C303B093C403BF91AF919F91E1
:100790008F913F912F910F900FBE0F901F90189542
:1007A000CF92DF92EF92FF920F931F93CF93DF933D
:1007B000EC01E62E88E0F82E93ECC92ED12C61E0F6
:1007C00088810E94F202C6010197F1F7E0FE02C0A3
:1007D00060E001C061E089810E94F20203EC10E058
:1007E000C6010197F1F760E088810E94F202C6011C
:1007F0000197F1F7E694FA94F110E1CF61E0888176
:100800000E94F20260E089810E94F202C801019711
:10081000F1F760E088810E94F202C8010197F1F7C8
:1008200089810E94D601F82E811104C061E089817E
:100830000E94F20203EC10E0C8010197F1F761E0B9
:1008400088810E94F202F8013197F1F781E0F110FE
:1008500001C080E0DF91CF911F910F91FF90EF9049
:10086000DF90CF9008950F931F93CF93DF938C0168
:1008700061E0FC0181810E94F202C3ECD0E0CE0174
:100880000197F1F760E0F80180810E94F202CE0149
:100890000197F1F760E0F80181810E94F20221974F
:1008A000F1F7DF91CF911F910F91089561E0FC0165
:1008B00081810E94F20283EC90E00197F1F70895A4
:1008C0008F929F92AF92BF92CF92DF92EF92FF9260
:1008D0000F931F93CF93DF9300D000D0CDB7DEB737
:1008E000DC0112962D913C9113971496ED91FC9199
:1008F00015970D911C912115310519F4309709F4C4
:1009000054C0E130F10571F4C9016CE370E00E945C
:10091000EC1544E6469F9001479F300D1124280FA7
:10092000391F03C0E230F10519F099249A9401C0EF
:10093000912C88E2C82E82E0D82ECE0101967C014F
:100940008824839440E0D601BE90AE906D01C90129
:10095000B5010E94EC156115710541F4E230F10515
:10096000B1F48820A1F04330A1F411C0A62FAF70DC
:10097000B0E0A05FBD4F9C916A9DD0016B9DB00D12
:100980007A9DB00D11242A1B3B0B812C03C09FE3E1
:1009900001C090E0892D8078982B990CD7019D9308
:1009A0007D014F5F443079F605C080E489838A83F6
:1009B0008B838C83BE016F5F7F4FC8010E946007ED
:1009C0000F900F900F900F90DF91CF911F910F918B
:1009D000FF90EF90DF90CF90BF90AF909F908F905F
:1009E0000895FC01228133816217730721F073831C
:1009F00062830C9460040895DC0116962C9116977E
:100A000021110EC021E016962C931697ED91FC91C2
:100A1000119717962C912770286022830C946004FC
:100A20000895CF93DF93FC0124813581621773070A
:100A300051F0EC01758364830E94FC04CE01DF91C8
:100A4000CF910C946004DF91CF910895DC0116964C
:100A50002C911697222361F016961C921697ED9111
:100A6000FC91119717962C91277022830C946004A7
:100A70000895DC0116963C91169721E032271696D0
:100A80003C931697ED91FC91119717962C91277036
:100A9000311138E0232B22830C9460048F929F92B3
:100AA000AF92BF92CF92DF92EF92FF920F931F937C
:100AB000CF93DF93DA01CD91DC91FB01848595859D
:100AC000C817D9070CF04CC0CE01880F991F0284BB
:100AD000F385E02DE80FF91F80809180C170DD273C
:100AE000F1E0CF27209719F484E690E002C08CE96A
:100AF0009FEF59016A017801E80EF91EB701C401A0
:100B00000E942402892B99F4E00EF11EB701C40162
:100B10000E942402892B71F4B701600F711FC40178
:100B20000E942402892BF9F023E030E005C021E087
:100B300030E002C022E030E0D5018D919C91119708
:100B400001968217930744F0F50111821082D601B5
:100B50008D919C91119701968D939C93CE0105C028
:100B600081E090E002C08FEF9FEFDF91CF911F9166
:100B70000F91FF90EF90DF90CF90BF90AF909F903C
:100B80008F900895F89482E08093B0008093B10034
:100B900094E69093B3001092B20080937000789422
:100BA000E4EEF2E080831482818160E00C94F20232
:100BB0001F920F920FB60F9211242F933F934F93D2
:100BC0005F936F937F938F939F93AF93BF93EF93B5
:100BD000FF938091E5020E94D6012091E9023091B5
:100BE000EA022F5F3F4F3093EA022093E90290918F
:100BF000E802953618F096E09093E4029091E402B2
:100C00009430C9F128F4923069F09330D1F05EC08D
:100C1000953009F451C0963009F058C091E0909396
:100C2000B50351C0811152C02091E9023091EA020E
:100C30002436310508F442C01092B5031092E80240
:100C40001CC0813009F042C0E091E80291E09E0FA3
:100C50009093E802F0E02091E9023091EA02EE0F71
:100C6000FF1FEC51FD4F308727831092EA0210924C
:100C7000E90294E029C0811117C0E091E80291E0F7
:100C80009E0F9093E802F0E02091E9023091EA0291
:100C9000EE0FFF1FEC51FD4F308727831092EA02C1
:100CA0001092E90293E010C02091E9023091EA022B
:100CB0002536310558F007C0811108C01092EA02AC
:100CC0001092E90203C095E09093E4029091E7024C
:100CD0009923B9F081110AC08091E602882321F09E
:100CE0008091E60261E009C02D9A0BC08091E60276
:100CF000882331F08091E60260E00E94C20201C0C8
:100D00002D98FF91EF91BF91AF919F918F917F911E
:100D10006F915F914F913F912F910F900FBE0F9068
:100D20001F901895CF93DF93EC018BA99CA9A0E0AD
:100D3000B0E08DAB9EABAFABB8AF81E090E099ABCC
:100D400088AB60E070E08A8D9B8D0E9411056DA9D3
:100D50007EA98A8D9B8D0E94F1048A8D9B8DDF91E7
:100D6000CF910C94FC048F929F92AF92BF92CF923E
:100D7000DF92EF92FF920F931F93CF93DF93FC01CB
:100D8000F084F11002C0E0E040C0EC010E947A0360
:100D9000088119812A813B816017710782079307B7
:100DA00068F08A849B84AC84BD84080D191D2A1DBB
:100DB0003B1D061717072807390728F7E985EE2393
:100DC00011F1CC80DD80EE80FF806A857B858C858B
:100DD0009D852E853F854889598949015A01FFEF34
:100DE0008F1A9F0AAF0ABF0A8E869F86A88AB98A81
:100DF0000E94DC15C60ED71EE81EF91EC882D982D5
:100E0000EA82FB8202C01886EF2D8E2FDF91CF91F0
:100E10001F910F91FF90EF90DF90CF90BF90AF9018
:100E20009F908F900895CF92DF92EF92FF92CF9391
:100E3000DF93EC01CA84DB84EC84FD840E947A0396
:100E4000688379838A839B836C837D838E839F836E
:100E500081E08987CA86DB86EC86FD86888781E00B
:100E600090E0A0E0B0E08E879F87A88BB98BDF91E0
:100E7000CF91FF90EF90DF90CF900895CF93DF93C5
:100E8000DC015A96ED91FC915B9726812223A9F013
:100E9000EC01888D998D0E9413078A8D9B8D0E948D
:100EA0002605888D998D0E94B3068823D1F38A8DFB
:100EB0009B8DDF91CF910C94FC04DF91CF9108952D
:100EC000CF92DF92EF92FF920F931F93CF93DF9316
:100ED0001F92CDB7DEB76C01F62E79830E945604BF
:100EE00060E4C6010E94D003C6010E943304C6011B
:100EF0000E94560460ECC6010E94D0030F2D798138
:100F0000172F780184E0E80EF11CF80161918F0140
:100F1000C6010E94D0030E151F05B9F7C6010E9435
:100F20003304C6010E945604F60162816F70605856
:100F3000C6010E94D003C6010F90DF91CF911F918F
:100F40000F91FF90EF90DF90CF900C9433040097B7
:100F500069F0FC0101900020E9F73197AF01481BCF
:100F6000590BBC0185EC93E00C94A30080E090E069
:100F70000895CF93DF93CDB7DEB72C970FB6F894D3
:100F8000DEBF0FBECDBF789484B5826084BD84B5CA
:100F9000816084BD85B5826085BD85B5816085BD74
:100FA00080916E00816080936E001092810080912C
:100FB00081008260809381008091810081608093B4
:100FC0008100809180008160809380008091B100D9
:100FD00084608093B1008091B00081608093B00004
:100FE00080917A00846080937A0080917A00826098
:100FF00080937A0080917A00816080937A0080915A
:101000007A00806880937A001092C100E091D50345
:10101000F091D60382E08083E091D103F091D20376
:101020001082E091D303F091D4038FEC808310926F
:10103000DD03E091D903F091DA0386E08083E0914B
:10104000D703F091D803808180618083E091D7033A
:10105000F091D803808188608083E091D703F0917C
:10106000D803808180688083E091D703F091D80312
:1010700080818F7D80838AE392E00E94A70783E5C9
:1010800092E00E94A70787E592E00E94A70761E02F
:101090008AE00E94F20260E08AE00E94C20282E1DD
:1010A00090E00E948D165C01DC0119961C92199744
:1010B000FC0112861386148615861E961D921D92BB
:1010C0001D921C9251970E947A03F50160837183EF
:1010D0008283938310861186B092B903A092B803DD
:1010E00082E190E00E948D166C01DC0119961C9241
:1010F0001997FC0112861386148615861E961D927A
:101100001D921D921C9251970E947A03F6016083F2
:10111000718382839383648375838683978311E0CD
:1011200011878AEF90E0A0E0B0E082879387A487E0
:10113000B587108781E090E0A0E0B0E086879787D0
:10114000A08BB18BD0920101C092000188E090E0A9
:101150000E948D167C01DC0111961C921E92139642
:101160001C921E92129715961C921E921497169618
:101170001C93169717961C9283E090E00E948D16A0
:101180008C0189E0F801808388E0818360E089E058
:101190000E94F20260E0D80111968C910E94F20246
:1011A00060E0F80180810E94C20260E0D8011196DF
:1011B0008C910E94C202F70111830083878187709E
:1011C0009681911198E0892BD80112968C93C701D2
:1011D0000E946004F092B703E092B60380E490E0CE
:1011E0000E948D168C01FC011082118212821382E2
:1011F0001786108A118A128A138A148A158A168A07
:10120000178A0E947A03D80116966D937D938D9369
:101210009C9319971E961C921E971F961C921F97BF
:1012200081E090E0D1969C938E93D097D2961C92B9
:10123000D297D4961C921E92D397F80115AA16AA9B
:1012400017AA10AED9961D921D921D921C92DC9782
:1012500099249394DD969C92DD97DE969C92DE977E
:10126000DF969C92DF971596BC92AE9214970E94DF
:101270007A03F8016683778380879187968617863D
:1012800080E69AEEA0E0B0E0808B918BA28BB38BCE
:10129000D18EC08EF38EE28E88E693E0958F848F98
:1012A00081E090E00E948D162BE0F22EF092E50294
:1012B0001092E702D8015F969C938E935E970E94EE
:1012C000C2051093BB030093BA03F092E50210929B
:1012D000E7028E010F5F1F4FC8010E94C2050987F8
:1012E0001A87E090BA03F090BB03F7013696FC87AB
:1012F000EB87CF010E94B306882329F0D701DD9642
:101300008C918111B3C2F70180A991A9049719F0BA
:1013100082A9882371F0F701808D918D0E94B30618
:10132000882339F0D7015A968D919C915B970E9442
:101330003905F701068CF78DE02DFE83ED83EBEE8A
:10134000F2E0D7019B96FC93EE939A978091E80286
:1013500090E09D969C938E939C978091B50390E02E
:101360009F969C938E939E978091E402853009F01E
:1013700045C28091ED029091EE02885891098D3519
:10138000910588F48091E802843041F48091EF0265
:101390009091F0028097479708F489C28091E80203
:1013A000843408F06BC28091E8028A31E8F18091C0
:1013B000EB029091EC02843F914008F441C080918F
:1013C000ED029091EE0285974B9770F5E1EFF2E018
:1013D00082E090E0812C912C5401AC014F5F5F4F73
:1013E0002091E80230E0421753075CF4DF011297C6
:1013F0002D913C91275031092730310508F49BC2CB
:10140000CA01019795958795F70191A780A70C9739
:101410001CF411A610A608C0D70184A295A2A6A20A
:10142000B7A284E090E0DEC38091E8028A3108F43C
:1014300051C08091EB029091EC028032934060F4B5
:10144000F70111A610A62FEF3FEFA901D70124A3A2
:1014500035A346A357A30EC08091ED029091EE02F2
:10146000C697869708F484C235C0D70184A295A296
:10147000A6A2B7A28BE090E0B5C3208131812552AE
:1014800031092B31310508F083C2880C991CAA1C44
:10149000BB1C689480F802963496AC014F5F5F4F96
:1014A0002091E80230E04217530754F4DF0112970D
:1014B0002D913C912C5031092B303105F0F2CA01AD
:1014C000019795958795F70191A780A70C976CF6E2
:1014D00011A610A68091E802823208F447C08091DC
:1014E000ED029091EE020697079708F03FC0E1EFFA
:1014F000F2E082E090E0812C912C54019C012F5F5E
:101500003F4F4091E80250E024173507E4F4DF0133
:1015100012974D915C9111974E51510947315105E8
:1015200008F043C2880C991CAA1CBB1C689480F864
:10153000408151813496435051094530510510F492
:101540000296DCCFC901019795958795F70191A780
:1015500080A740971CF411A610A608C0D70184A24A
:1015600095A2A6A2B7A28CE090E03CC36701B0E2CE
:10157000CB0ED11C1C821B8281E090E09A83898370
:101580008091E8028D3008F473C009E713E09E01F2
:101590002D5F3F4F49855A85B6018D819E810E94FE
:1015A0004E05892B09F064C09E012D5F3F4F498590
:1015B0005A85B6018D819E810E944E05019709F0E2
:1015C00057C09E012D5F3F4F49855A85B6018D81D9
:1015D0009E810E944E05892B09F04AC0412C512C56
:1015E0003201A12CB12C8091E80290E029813A814E
:1015F0002817390784F509E713E09E012D5F3F4F57
:1016000049855A85B6018D819E810E944E054C0107
:101610009E012D5F3F4F49855A85B6018D819E8180
:101620000E944E05E1E08E16910449F4892B01F5E4
:10163000440C551C661C771C689440F808C0892827
:10164000B9F40197A9F4440C551C661C771CFFEFF4
:10165000AF1ABF0AC8CFD7019996BC92AE9298979D
:10166000F70144A255A266A277A281E090E0BEC035
:101670001C821B8281E090E09A838983D7019C962B
:101680008D919C919D97181619060CF067C09A963B
:10169000ED91FC919B9722E030E03A83298382818F
:1016A000938189974E9708F059C083E090E09A8320
:1016B0008983848195810B970A9708F04FC00CEBC2
:1016C00011E09E012D5F3F4F49855A85B6018D81FE
:1016D0009E810E944E05892B09F040C00CEB11E061
:1016E0009E012D5F3F4F49855A85B6018D819E81B0
:1016F0000E944E05019791F5212C312C2101A12C3E
:10170000B12C29813A81D7019C968D919C919D970E
:10171000281739070CF098C10CEB11E09E012D5FE2
:101720003F4F49855A85B6018D819E810E944E05A5
:101730003C0133E0A316B10409F044C10CEB11E005
:101740009E012D5F3F4F49855A85B6018D819E814F
:101750000E944E056816790609F434C1D7019A969D
:10176000ED91FC919B9782819381C697869708F4AF
:1017700079C1C5C1A80142505109DA014D915C916E
:10178000495051094830510508F0E3C1BC016F5F71
:101790007F4FD8014D915C91475051094730510519
:1017A00008F081C7220F331F216002960C5F1F4F84
:1017B0004091E80250E04450510984179507D4F253
:1017C000019795958795D70199969C938E939897B5
:1017D0008A970CF4BEC1C901330FAA0BBB0BF701EA
:1017E00084A395A3A6A3B7A389E090E091A380A3C7
:1017F000FDC182E08093E4021092E80261E070E0B3
:1018000080E090E00E942E030091BA031091BB0388
:10181000D801D0968D919C91D197049731F4809105
:10182000B8039091B9030E94B306F80180A991A969
:10183000039709F071C48091B8039091B9030E9495
:10184000B306882309F468C40E9468038091B60334
:101850009091B703DC0112966D917C9113976F5FA5
:101860007F4F0E94F1040E94A3013BCDD7015A96FD
:101870008D919C915B970E94260545CD8091EF024A
:101880009091F002825491098E9708F08CCD80E0FF
:1018900090E040E050E0BA01FC01EF50FD4F2081A4
:1018A00031812950310929303105C0F07CCD80913A
:1018B000F1029091F2020997099708F06FCDD701D4
:1018C00099961C921E9298972FEF3FEFA90194963C
:1018D0002D933D934D935C9397971DC0FC01ED5064
:1018E000FD4F208131812751310922313105B0F47A
:1018F000440F551F661F771F41600496803891057D
:1019000059F680E290E0F70191A780A7D70144A3A0
:1019100055A366A377A383E090E064C12081318161
:10192000265031092730310508F03DCD440F551FB1
:10193000661F771FE2CF20813181235131092F307B
:10194000310548F4880C991CAA1CBB1C689480F8CB
:101950000296349642CD208131812A5031092930B6
:10196000310508F061CD880C991CAA1CBB1CF0CF76
:101970008091EF029091F002C697869708F0AACD69
:10198000E3EFF2E083E090E0812C912C540185CDCF
:10199000208131812C5031092A30310508F09ACD4F
:1019A000880C991CAA1CBB1C76CD4D915C914C50A7
:1019B00051094B30510508F0D9CD880C991CAA1C4F
:1019C000BB1CB6CD0CEB11E09E012D5F3F4F49854E
:1019D0005A85B6018D819E810E944E054C0143E0DF
:1019E000A416B10481F40CEB11E09E012D5F3F4F72
:1019F00049855A85B6018D819E810E944E058816C3
:101A0000990609F0ABCE6114710479F48A9489289F
:101A100009F0A4CED201C101880F991FAA1FBB1FD4
:101A20001C012D01689420F80BC06A94672809F006
:101A300095CE892809F092CE220C331C441C551CEB
:101A40009FEFA91AB90A5DCE9996BC92AE9298976B
:101A5000F70124A235A246A257A222E030E031A32A
:101A600020A3C4C0848195814B97459708F047C057
:101A7000DF0116966F0126ECC20ED11C20E030E08B
:101A800040E050E060E070E080E090E00D911C915B
:101A90001197095011090830110588F512960D911A
:101AA0001C911397015111090D301105D8F401E073
:101AB0000E94331621601496AC15BD0539F7F70165
:101AC00024A335A346A357A300E20E944E1622A3E7
:101AD00033A385E090E091A380A380E390E091A7F9
:101AE00080A784C012960D911C9113970450110980
:101AF0000530110520F401E00E943316DCCF8091FF
:101B0000E802893340F082819381895791098335B6
:101B1000910508F40FC48091E802823209F472C37F
:101B200082819381895791098335910508F47BC49B
:101B3000828193818C549109C59708F4D2C4809115
:101B4000E802863408F065C38091E802883508F021
:101B500067C38091E802803209F06BC38281938170
:101B60000697069708F065C38481958109970997C0
:101B700008F05FC39F012A5F3F4FBF01625C7F4F48
:101B8000812C912C5401D9014D915C914650510901
:101B90004630510508F04DC3D90112964D915C9124
:101BA0001397495151094331510508F089C5D501B1
:101BB000C401880F991FAA1FBB1F4C015D016894C7
:101BC00080F82C5F3F4F26173707E9F62EE030E00C
:101BD000F70131A720A7D70184A295A2A6A2B7A298
:101BE0008FE090E091969C938E939097F70184A05C
:101BF00095A0A6A0B7A082E08093E4021092E8022C
:101C0000FFEF8F169F06AF06BF06F1F1F701808246
:101C10009182A282B382FAE08F16F4E59F06A104B6
:101C2000B104A1F4C7010E943E078B859C850E94E8
:101C30001307D7015A968D919C915B970E94FC04E3
:101C4000F70196AD81E0892786AF1EC0F7E08F16B9
:101C5000F1EC9F06F7E3AF06B104B1F4C7010E94AF
:101C60003E078B859C850E941307D7015A968D915C
:101C70009C915B970E94FC04F70196AD81E0982748
:101C800096AF97AD892787AFE8E0F1E080E090E07C
:101C9000D701DE962C912223A1F0408151816281EF
:101CA000738184169506A606B70659F42CE0289F82
:101CB000F001299FF00D1124E85FFE4F008511858A
:101CC00015C0D701DF962C91222349F0448155811C
:101CD0006681778184169506A606B70639F30196C4
:101CE0003C9686319105A1F600E010E06801B1E074
:101CF000CB1AD108E6E1CE16D10408F047C0C801DE
:101D00004297029720F4C7010E943E0703C00131A9
:101D1000110539F0D7015A968D919C915B970E94DD
:101D2000FC048B859C850E941307BAE0CB16D10476
:101D300068F5F70180A991A9019741F525A936A970
:101D400047A950AD283EF3E03F0741055105D8F4BF
:101D5000D701D2961C92AAE0B0E00E9428160A3061
:101D6000110531F4F70165AB76AB87AB90AF0BC0D3
:101D7000DC01CB01800F911FA11DB11DF70185ABC7
:101D800096ABA7ABB0AF60E070E0B7C1073111050B
:101D900008F03ACDF801EC5CFF4F0C942216D70105
:101DA000D0968D919C91D1978130910561F4D59613
:101DB0002D913D914D915C91D897211531054105AB
:101DC000510529F421CD049709F01ECD75C00C30C2
:101DD000110549F5CA01B90124E630E040E050E0C0
:101DE0000E9400164B015C016C3371058105910561
:101DF00020F081E0F70182AB07CDACE3B0E00E94B8
:101E000028169B01AC01280D391D4A1D5B1DA8EE4B
:101E1000B3E00E942816D701D9966D937D938D93D8
:101E20009C93DC9709C0AAE0B0E00E942816F70155
:101E300061AF72AF83AF94AFD7015C96ED91FC9127
:101E40005D970995412C512C32014394F70145AA25
:101E500056AA67AA70AE81AC92ACA3ACB4AC0481B4
:101E600015810E947A03D8016D937D938D939C9385
:101E70001397F801648375838683978381E0818754
:101E80001A968D929D92AD92BC921D9718968C9346
:101E900046865786608A718A62E070E0D7015A965A
:101EA0008D919C915B970E941105F70165A976A918
:101EB000828D938D0E94F10483E090E0D701D1964A
:101EC0009C938E93D09762E070E05A968D919C918E
:101ED0005B970E94110598CCF70180A991A9029700
:101EE000039708F091CC81E090E091AB80AB60E08B
:101EF00070E0828D938D0E941105D701D5961D92B9
:101F00001D921D921C92D89760E070E0F7C0D70137
:101F1000D0968D919C91D197039709F075CC84E070
:101F200090E0D1969C938E93D09758968D919C91EA
:101F300059970E94130768CCD7015A96ED91FC91EE
:101F40005B979781992309F45FCC91509783A08187
:101F5000B18197700DC0D7015A96ED91FC915B97B6
:101F60009781973008F050CC9F5F9783A081B18113
:101F70008681811188E0982B12969C93CF010E9454
:101F8000600442CCF701828D938D0E9439053CCCD0
:101F9000D701DD961C9238CC81E0F70185AF34CCB7
:101FA000D701D0968D919C91D197019709F02CCCB7
:101FB000D5966D917D918D919C91D8976A307105E0
:101FC0008105910560F02AE030E040E050E00E9499
:101FD0000016F70125AB36AB47AB50AF07C0D701B2
:101FE000D5961D921D921D921C92D897F70165A956
:101FF00076A9828D938D0E94F104D701D2961C920E
:1020000003CCF70180A991A9019709F0FDCB15AA8E
:1020100016AA17AA10AE12AA60E070E0828D938D06
:1020200078C0F70180A991A9019709F0EDCB22E0D2
:1020300030E031AB20AB61E070E0828D938D0E9487
:102040001105D7011496ED91FC9115971086D59640
:102050006D917D918D919C91D897D4967C936E9340
:10206000D397611571058105910509F4CDCB24E65F
:1020700030E040E050E00E9400164B015C01ACE310
:10208000B0E00E9428169B01AC01280D391D4A1DA5
:102090005B1DA8EEB3E00E942816F70161AF72AF96
:1020A00083AF94AF808D918D0E941307D701D9968D
:1020B0008D909D90AD90BC90DC9714960D911C91E5
:1020C00015970E947A03F80160837183828393835A
:1020D000648375838683978381E081878286938674
:1020E000A486B586808781E090E0A0E0B0E0868796
:1020F0009787A08BB18B61E070E0D7015A968D91E4
:102100009C915B970E941105F70165A976A9828DC4
:10211000938D0E94F10478CBF80180A991A98230B7
:10212000910509F065C08090B8039090B903D4017F
:1021300018968C9181110CC08091B6039091B703D1
:102140000E9439050E946803C8010E9492068BCB49
:10215000C4010E94B306B82E882391F0E090B60324
:10216000F090B703C7010E94FC0460E070E0C70173
:102170000E94F1040E946803C8010E94920626C0D2
:10218000F401C284D384E484F58440805180628069
:1021900073800E947A03C40CD51CE61CF71CA701AF
:1021A0009601261B370B480B590BCA01B90128EEC3
:1021B00033E040E050E00E940016B9016F5F7F4FAE
:1021C0008091B6039091B7030E94F10480910001C1
:1021D000909101010E94B306882309F444CBB11009
:1021E00042CB8091B6039091B7030E9439053BCB57
:1021F000039709F438CB61E070E080E090E00E9442
:102200002E0331CB828193810A97099708F4EDC0A0
:1022100087CC828193810C970B9708F4CEC194CC24
:1022200082819381855891098B35910508F42CC2E0
:1022300090CCD7019C962D903C909D97B6E02B16A4
:1022400031040CF4D6CA8F010A5F1F4F95EC892E1A
:102250009DE9992E9CE1A92E91E8B92E23E0C22E8A
:10226000D12CF8016081718134976080718080E0A9
:1022700090E00E94BD146D837E838F839887B301A5
:1022800080E090E00E94BD142B013C012DEC3CEC61
:102290004CE45FE30E946F159B01AC016D817E8170
:1022A0008F8198850E94101487FD19C02DEC3CEC9D
:1022B0004CE45FE36D817E818F8198850E946F156C
:1022C0009B01AC01C301B2010E941014E82F880FDA
:1022D000FF0BEE27FF0FEE1FFF27319602C0E0E055
:1022E000F0E0A501940163E971E080E091E00E94D3
:1022F000DC154F01FF0FAA08BB0886269726A826E3
:10230000B926FFEFCF1ADF0A0E5F1F4FC214D304A6
:1023100009F0A7CFD70194968D929D92AD92BC9271
:10232000979780E290E099969C938E9398978FEF81
:102330009FEF58CC84819581CA97899708F0EBCBA1
:102340009F012A5F3F4F812C912C540143E050E0C4
:10235000D9016D917C916A5071096930710508F05D
:10236000DACBD90112966D917C9113976651710960
:102370006131710550F5D501C401880F991FAA1F5D
:10238000BB1F4C015D01689480F84E5F5F4F2C5F6E
:102390003F4F4B335105E1F69F012A583F4FD9017A
:1023A0002D913C912A5031092930310508F0B3CBE9
:1023B0002CE130E0F70131A720A7D70184A295A234
:1023C000A6A2B7A28AE090E00DCCD90112966D9139
:1023D0007C911397665071096730710508F09BCBAB
:1023E000880C991CAA1CBB1CD0CF2091E802CF01FD
:1023F000820F911D820F911DDC0112978D919C918E
:102400000A97099708F08CCBD70199961C921E92D7
:1024100098972FEF3FEFA90194962D933D934D93FD
:102420005C9397975DC18091E802813208F480CB7C
:1024300084819581CA97899708F07ACB9F012A5F9A
:102440003F4F812C912C540143E050E0D9016D9114
:102450007C916A5071096930710508F069CBD90126
:1024600012966D917C9113976651710961317105D6
:1024700040F5D501C401880F991FAA1FBB1F4C014D
:102480005D01689480F84E5F5F4F2C5F3F4F433291
:102490005105E1F69F012A5B3F4FD9012D913C91F7
:1024A0002A5031092930310508F042CB20E130E0D3
:1024B000F70131A720A7D70184A295A2A6A2B7A2AF
:1024C0000FC1D90112966D917C91139766507109D5
:1024D0006730710508F02CCB880C991CAA1CBB1C1A
:1024E000D2CF8091E802843029F48481958180974D
:1024F0004797F0F08091E802843408F420CB84817F
:10250000958189549109C39708F019CB9F012A5FDF
:102510003F4FBF016A577F4F812C912C5401D90145
:102520004D915C91495051094930510590F007CBCC
:102530008681978109970997E8F6F70111A610A6F9
:102540002FEF3FEFA901D70124A335A346A357A33B
:10255000CAC0D90112964D915C9113974651510909
:1025600041315105D0F4D501C401880F991FAA1F2C
:10257000BB1F4C015D01689480F82C5F3F4F26170C
:10258000370769F620E230E0F70131A720A7D7012D
:1025900084A295A2A6A2B7A2A6C0D90112964D9177
:1025A0005C911397465051094730510508F0C7CA4E
:1025B000880C991CAA1CBB1CE0CF848195810997CB
:1025C000099708F0C1CA868197818C974F9708F0C8
:1025D000BBCA8085918589974D9708F0B5CA9F0140
:1025E000265F3F4F812C912C540145E050E0D901EA
:1025F0006D917C916C5071096B30710508F0A4CA23
:10260000D90112966D917C9113976E5171096731C2
:10261000710550F5D501C401880F991FAA1FBB1F72
:102620004C015D01689480F84E5F5F4F2C5F3F4F17
:1026300045345105E1F69F0126573F4FD9012D91B1
:102640003C912C5031092B30310508F07DCA20E235
:1026500030E0F70131A720A7D70184A295A2A6A256
:10266000B7A288E090E0BECAD90112966D917C9124
:102670001397695071096930710508F065CA880CB3
:10268000991CAA1CBB1CD0CF8481958182549109CE
:102690008E9708F05ECA8F01045C1F4F8DE190E0B9
:1026A00020E030E085C8D8014D915C914851510936
:1026B0004231510510F0CB0183C8220F331F75C87A
:1026C000D90112964D915C911397495051094930A7
:1026D000510508F0AECD880C991CAA1CBB1C71CA10
:1026E00086E090E07FCA87E090E07CCAE5ECF3E00A
:1026F0001382128288EE93E0A0E0B0E08483958399
:10270000A683B7838CE292E09183808385EC90E08E
:102710009587848784EC90E09787868780EC90E0AB
:10272000918B808B81EC90E0938B828B82EC90E09C
:10273000958B848B86EC90E0978B868B118E128E16
:10274000138E148E08955058BB27AA270E94BB13DE
:102750000C9435150E94271538F00E942E1520F094
:1027600039F49F3F19F426F40C9424150EF4E095E7
:10277000E7FB0C941E15E92F0E94461558F3BA1773
:10278000620773078407950720F079F4A6F50C9487
:1027900068150EF4E0950B2EBA2FA02D0B01B90190
:1027A00090010C01CA01A0011124FF27591B99F0C7
:1027B000593F50F4503E68F11A16F040A22F232FD3
:1027C000342F4427585FF3CF469537952795A79523
:1027D000F0405395C9F77EF41F16BA0B620B730BCA
:1027E000840BBAF09150A1F0FF0FBB1F661F771F3B
:1027F000881FC2F70EC0BA0F621F731F841F48F4F0
:10280000879577956795B795F7959E3F08F0B0CF78
:102810009395880F08F09927EE0F9795879508955F
:102820000E94FA1408F481E008950E9429140C947F
:1028300035150E942E1558F00E94271540F029F4F6
:102840005F3F29F00C941E1551110C9469150C94DE
:1028500024150E94461568F39923B1F3552391F38B
:10286000951B550BBB27AA2762177307840738F0FF
:102870009F5F5F4F220F331F441FAA1FA9F335D05C
:102880000E2E3AF0E0E832D091505040E695001C10
:10289000CAF72BD0FE2F29D0660F771F881FBB1FCA
:1028A000261737074807AB07B0E809F0BB0B802DA8
:1028B000BF01FF2793585F4F3AF09E3F510578F0D4
:1028C0000C941E150C9469155F3FE4F3983ED4F305
:1028D000869577956795B795F7959F5FC9F7880FA8
:1028E000911D9695879597F90895E1E0660F771FFA
:1028F000881FBB1F621773078407BA0720F0621B8B
:10290000730B840BBA0BEE1F88F7E09508950E94B5
:102910008E146894B1110C94691508950E944E1597
:1029200088F09F5798F0B92F9927B751B0F0E1F090
:10293000660F771F881F991F1AF0BA95C9F714C040
:10294000B13091F00E946815B1E008950C946815BB
:10295000672F782F8827B85F39F0B93FCCF3869579
:1029600077956795B395D9F73EF4909580957095D6
:1029700061957F4F8F4F9F4F0895E89409C097FB53
:102980003EF490958095709561957F4F8F4F9F4F46
:102990009923A9F0F92F96E9BB279395F69587958A
:1029A00077956795B795F111F8CFFAF4BB0F11F44D
:1029B00060FF1BC06F5F7F4F8F4F9F4F16C08823F4
:1029C00011F096E911C0772321F09EE8872F762F2A
:1029D00005C0662371F096E8862F70E060E02AF06B
:1029E0009A95660F771F881FDAF7880F9695879557
:1029F00097F90895990F0008550FAA0BE0E8FEEF2C
:102A000016161706E807F907C0F012161306E407B2
:102A1000F50798F0621B730B840B950B39F40A26AB
:102A200061F0232B242B252B21F408950A2609F489
:102A3000A140A6958FEF811D811D089597F99F678D
:102A400080E870E060E008959FEF80EC0895002436
:102A50000A941616170618060906089500240A9403
:102A600012161306140605060895092E0394000C89
:102A700011F4882352F0BB0F40F4BF2B11F460FF18
:102A800004C06F5F7F4F8F4F9F4F089557FD905841
:102A9000440F551F59F05F3F71F04795880F97FB22
:102AA000991F61F09F3F79F08795089512161306DC
:102AB0001406551FF2CF4695F1DF08C0161617060B
:102AC0001806991FF1CF8695710561050894089540
:102AD000E894BB2766277727CB0197F908950E94D2
:102AE00082150C9435150E94271538F00E942E157A
:102AF00020F0952311F00C941E150C94241511242C
:102B00000C9469150E94461570F3959FC1F3950FBB
:102B100050E0551F629FF001729FBB27F00DB11D61
:102B2000639FAA27F00DB11DAA1F649F6627B00DF1
:102B3000A11D661F829F2227B00DA11D621F739FDA
:102B4000B00DA11D621F839FA00D611D221F749FE8
:102B50003327A00D611D231F849F600D211D822F2F
:102B6000762F6A2F11249F5750409AF0F1F0882356
:102B70004AF0EE0FFF1FBB1F661F771F881F915083
:102B80005040A9F79E3F510580F00C941E150C94FF
:102B900069155F3FE4F3983ED4F386957795679582
:102BA000B795F795E7959F5FC1F7FE2B880F911DAD
:102BB0009695879597F90895DB018F939F930E94CF
:102BC0002816BF91AF91A29F800D911DA39F900DDC
:102BD000B29F900D1124089597FB072E16F40094D0
:102BE00007D077FD09D00E946A1607FC05D03EF495
:102BF000909581959F4F0895709561957F4F0895A9
:102C0000A1E21A2EAA1BBB1BFD010DC0AA1FBB1FF0
:102C1000EE1FFF1FA217B307E407F50720F0A21B62
:102C2000B30BE40BF50B661F771F881F991F1A94CF
:102C300069F760957095809590959B01AC01BD01F9
:102C4000CF010895EE0FFF1F0590F491E02D099438
:102C50000E947E16A59F900DB49F900DA49F800D9D
:102C6000911D112408950F93083090F0982F872F0D
:102C7000762F652F542F432F322F22270850F4CF61
:102C8000220F331F441F551F661F771F881F991F70
:102C90000A95B2F70F91089597FB10F81694000863
:102CA0000F93083098F00850232F342F452F562FBC
:102CB000672F782F892F902DF4CF059497958795BE
:102CC0007795679557954795379527950A95AAF76C
:102CD0000F910895AA1BBB1B51E107C0AA1FBB1F80
:102CE000A617B70710F0A61BB70B881F991F5A9598
:102CF000A9F780959095BC01CD010895A29FB001E0
:102D0000B39FC001A39F700D811D1124911DB29F1F
:102D1000700D811D1124911D0895CF93DF93823092
:102D2000910510F482E090E0E0916404F091650474
:102D300020E030E0C0E0D0E0309711F140815181D7
:102D400048175907C0F04817590761F482819381E9
:102D5000209719F09B838A832BC0909365048093FE
:102D6000640426C02115310519F04217530718F4E1
:102D70009A01BE01DF01EF010280F381E02DDCCF7B
:102D80002115310509F1281B390B2430310590F448
:102D900012968D919C9113976115710521F0FB019D
:102DA0009383828304C09093650480936404FD013F
:102DB000329644C0FD01E20FF31F8193919322509C
:102DC00031092D933C933AC0209162043091630401
:102DD000232B41F4209104013091050130936304C9
:102DE00020936204209102013091030121153105E5
:102DF00041F42DB73EB74091060150910701241BC5
:102E0000350BE0916204F0916304E217F307A0F43C
:102E10002E1B3F0B2817390778F0AC014E5F5F4F30
:102E20002417350748F04E0F5F1F509363044093FB
:102E300062048193919302C0E0E0F0E0CF01DF9162
:102E4000CF9108950F931F93CF93DF93009709F4C9
:102E50008CC0FC013297138212820091640410919D
:102E600065040115110581F420813181820F931FC2
:102E700020916204309163042817390779F5F093A3
:102E80006304E093620471C0D80140E050E0AE17E3
:102E9000BF0750F412962D913C911397AD01211567
:102EA000310509F1D901F3CF9D01DA013383228382
:102EB00060817181860F971F8217930769F4EC0177
:102EC00028813981260F371F2E5F3F4F31832083A2
:102ED0008A819B8193838283452B29F4F093650437
:102EE000E093640442C01396FC93EE931297ED01B5
:102EF000499159919E01240F351FE217F30771F490
:102F000080819181840F951F029611969C938E93D8
:102F10008281938113969C938E931297E0E0F0E068
:102F2000D80112968D919C911397009719F0F80192
:102F30008C01F6CF8D919C9198012E5F3F4F820FAF
:102F4000931F20916204309163042817390769F4B4
:102F5000309729F4109265041092640402C0138221
:102F600012821093630400936204DF91CF911F914A
:102F70000F91089581E090E0F8940C94BF17F894B5
:022F8000FFCF81
:102F8200F4010000660480000B2000000C99370059
:102F92000B005A020B400000174137000D0060027F
:102FA2000B000000345936000E00660208C1020010
:102FB2003A2936000C006B0208E109000BA1370028
:102FC2000F00760208E101002F8136001000850211
:102FD2000C010E0002E9370014008E020C010200FF
:102FE2003C193600150095020C010A001C19370025
:102FF20012009A020C010600107E0F0013009E02BE
:1030020008E10300336136001600A4020A1400002E
:1030120020F936001100AA02080100003D11360015
:103022000100B102080108001D1137000200B502BB
:10303200080104002D9136000300B90208010C00BA
:103042000D9137000400BF0208010200355136001D
:103052000500C40208010A00155137000600C90222
:103062000801060025D136000700CD0208010E0036
:1030720005D137000800D3020801010039313600BA
:103082000900D90208010900193137000A00DE02DD
:103092003F065B4F666D7D077F6F777C395E797186
:1030A20001000A006400E803000000003A01A300E6
:1030B200D20081010301E100F500496E7465727668
:1030C200616C6F6D657465722076657273696F6E7F
:1030D2003A2000312E38000D0A00537461727400D8
:1030E20050617573650053746F700053746172742C
:1030F20020666173740042726967686E657373203B
:10310200646F776E005570206172726F7700596537
:103112006C6C6F7700426C75650052656400477293
:1031220065656E00456E746572004D7574696E67F3
:10313200004F6E650054776F0054687265650046F3
:103142006F7572004669766500536978005365763B
:10315200656E004569676874004E696E65005A6560
:04316200726F000088
:00000001FF
