:100000000C9479000C94A1000C94A1000C94A10014
:100010000C94A1000C94A1000C94A1000C94D805A0
:100020000C94A1000C94A1000C94A1000C94A100CC
:100030000C94A1000C94A1000C94A1000C94A100BC
:100040000C9486030C94A1000C9490020C946A0208
:100050000C94A1000C94A1000C94A1000C94A1009C
:100060000C94A1000C94A100430C490C490C490CC0
:10007000490C490C490C490C490C490C490CF70E28
:10008000F70EAF0F940FC40FD30FEA0FF00FFB0F53
:1000900007103810481000000000240027002A0034
:1000A00000000000250028002B00000000002300B5
:1000B00026002900040404040404040402020202C9
:1000C000020203030303030301020408102040801B
:1000D000010204081020010204081020000000089A
:1000E00000020100000304070000000000000000FF
:1000F000BE1311241FBECFEFD8E0DEBFCDBF12E08C
:10010000A0E0B1E0E4EDF5E302C005900D92AE3F52
:10011000B107D9F724E0AEEFB2E001C01D92A038DC
:10012000B207E1F710E0C9E7D0E004C02197FE0173
:100130000E946A16C837D107C9F70E94F6070C94C7
:10014000E81A0C940000CF92DF92EF92FF920F9387
:100150001F93CF93DF936C017A018B01C0E0D0E055
:10016000CE15DF0589F0D8016D918D01D601ED9195
:10017000FC910190F081E02DC6010995892B11F4C5
:100180007E0102C02196ECCFC701DF91CF911F9174
:100190000F91FF90EF90DF90CF900895089580E049
:1001A00090E00895FC01538D448D252F30E0842F7D
:1001B00090E0821B930B541710F0CF96089501978F
:1001C0000895FC01918D828D981761F0828DDF0179
:1001D000A80FB11D5D968C91928D9F5F9F73928F3A
:1001E00090E008958FEF9FEF0895FC01918D828D2F
:1001F000981731F0828DE80FF11D858D90E00895FC
:100200008FEF9FEF0895FC01918D228D892F90E053
:10021000805C9F4F821B91098F73992708958FED02
:1002200093E00E94030121E0892B09F420E0822F52
:100230000895FC01848DDF01A80FB11DA35ABF4FA3
:100240002C91848D90E001968F739927848FA689D5
:10025000B7892C93A089B1898C9180648C93938DFC
:10026000848D981306C00288F389E02D80818F7DEC
:1002700080830895EF92FF920F931F93CF93DF93A4
:10028000EC0181E0888F9B8D8C8D981305C0E889E7
:10029000F989808185FD24C0F62E0B8D10E00F5F5B
:1002A0001F4F0F731127E02E8C8DE8120CC00FB674
:1002B00007FCFACFE889F989808185FFF5CFCE0167
:1002C0000E941901F1CF8B8DFE01E80FF11DE35A59
:1002D000FF4FF0820B8FEA89FB898081806207C023
:1002E000EE89FF896083E889F98980818064808351
:1002F00081E090E0DF91CF911F910F91FF90EF90FF
:100300000895CF93DF93EC01888D8823C9F0EA89A3
:10031000FB89808185FD05C0A889B9898C9186FDFE
:100320000FC00FB607FCF5CF808185FFF2CFA889FB
:10033000B9898C9185FFEDCFCE010E941901E7CFDD
:10034000DF91CF91089580E090E0892B29F00E9401
:100350000F0181110C9400000895833081F028F47E
:10036000813099F08230A1F008958730A9F088306B
:10037000B9F08430D1F4809180008F7D03C08091EA
:1003800080008F7780938000089584B58F7702C0B6
:1003900084B58F7D84BD08958091B0008F7703C0B0
:1003A0008091B0008F7D8093B0000895CF93DF934C
:1003B000282F30E0F901E452FF4F8491F901E8530E
:1003C000FF4FD491F901EC54FF4FC491CC2391F02D
:1003D00081110E94AD01EC2FF0E0EE0FFF1FE655FA
:1003E000FF4FA591B491EC91ED2381E090E021F4D1
:1003F00080E002C080E090E0DF91CF9108953FB7A8
:10040000F8948091DB039091DC03A091DD03B0911F
:10041000DE0326B5A89B05C02F3F19F00196A11D4C
:10042000B11D3FBFBA2FA92F982F8827820F911D8A
:10043000A11DB11DBC01CD0142E0660F771F881FD1
:10044000991F4A95D1F70895CF92DF92EF92FF92CC
:10045000CF93DF93EC01072E000C880B990B0E94C1
:1004600007156B017C0120E030E040E45FE30E946F
:10047000B71520E030E048E452E40E945D140E9489
:10048000CF14C617D707D4F020E030E040EA5FE38E
:10049000C701B6010E94B71520E030E048E452E4FD
:1004A0000E945D1420E030E040E85FE30E94EC131E
:1004B0000E94CF1421E06C177D070CF420E0822FFE
:1004C00090E0DF91CF91FF90EF90DF90CF90089573
:1004D0000E9402181F920F920FB60F9211242F93B1
:1004E0003F934F935F936F937F938F939F93AF93BC
:1004F000BF93EF93FF938FED93E00E941901FF915B
:10050000EF91BF91AF919F918F917F916F915F918B
:100510004F913F912F910F900FBE0F901F90189504
:100520001F920F920FB60F9211242F938F939F93C8
:10053000EF93FF93E091EF03F091F0038081E0915E
:10054000F503F091F60382FD12C090818091F803CB
:100550008F5F8F732091F903821751F0E091F803B8
:10056000F0E0E152FC4F958F8093F80301C0808149
:10057000FF91EF919F918F912F910F900FBE0F9050
:100580001F9018951F93CF93DF93282F30E0F90128
:10059000E452FF4F8491F901E853FF4FD491F901E0
:1005A000EC54FF4FC491CC23C9F0162F81110E9447
:1005B000AD01EC2FF0E0EE0FFF1FE056FF4FA591CD
:1005C000B4918FB7F894111105C09C91ED2FE0956F
:1005D000E92302C0EC91ED2BEC938FBFDF91CF911B
:1005E0001F910895CF93DF9390E0FC01E853FF4FF4
:1005F0002491FC01EC54FF4F8491882361F190E039
:10060000880F991FFC01EA56FF4FC591D491FC0158
:10061000E056FF4FA591B491611109C09FB7F894BE
:100620008881209582238883EC912E230BC0623031
:1006300061F49FB7F8943881822F80958323888353
:10064000EC912E2B2C939FBF06C08FB7F894E881B6
:100650002E2B28838FBFDF91CF9108958F929F9289
:10066000AF92BF92CF92DF92EF92FF926B017C012B
:100670000E94FF014B015C01C114D104E104F104AB
:10068000F1F00E94FF01DC01CB0188199909AA0948
:10069000BB09883E9340A105B10570F321E0C21A61
:1006A000D108E108F10888EE880E83E0981EA11CAD
:1006B000B11CC114D104E104F10419F7DDCFFF909E
:1006C000EF90DF90CF90BF90AF909F908F90089564
:1006D00061E08AE00E94C2028BE79AE10197F1F79C
:1006E00064E670E080E090E00E942E0360E08AE023
:1006F0000C94C2022FB7F8946091D7037091D8037D
:100700008091D9039091DA032FBF08951F920F9221
:100710000FB60F9211242F933F938F939F93AF9314
:10072000BF938091D7039091D803A091D903B09142
:10073000DA033091D60323E0230F2D3720F40196FE
:10074000A11DB11D05C026E8230F0296A11DB11DF4
:100750002093D6038093D7039093D803A093D90313
:10076000B093DA038091DB039091DC03A091DD0369
:10077000B091DE030196A11DB11D8093DB03909320
:10078000DC03A093DD03B093DE03BF91AF919F9193
:100790008F913F912F910F900FBE0F901F90189542
:1007A000CF92DF92EF92FF920F931F93CF93DF933D
:1007B000EC01E62E88E0F82E93ECC92ED12C61E0F6
:1007C00088810E94F202C6010197F1F7E0FE02C0A3
:1007D00060E001C061E089810E94F20203EC10E058
:1007E000C6010197F1F760E088810E94F202C6011C
:1007F0000197F1F7E694FA94F110E1CF61E0888176
:100800000E94F20260E089810E94F202C801019711
:10081000F1F760E088810E94F202C8010197F1F7C8
:1008200089810E94D601F82E811104C061E089817E
:100830000E94F20203EC10E0C8010197F1F761E0B9
:1008400088810E94F202F8013197F1F781E0F110FE
:1008500001C080E0DF91CF911F910F91FF90EF9049
:10086000DF90CF9008950F931F93CF93DF938C0168
:1008700061E0FC0181810E94F202C3ECD0E0CE0174
:100880000197F1F760E0F80180810E94F202CE0149
:100890000197F1F760E0F80181810E94F20221974F
:1008A000F1F7DF91CF911F910F91089561E0FC0165
:1008B00081810E94F20283EC90E00197F1F70895A4
:1008C0008F929F92AF92BF92CF92DF92EF92FF9260
:1008D0000F931F93CF93DF9300D000D0CDB7DEB737
:1008E000DC0112962D913C9113971496ED91FC9199
:1008F00015970D911C912115310519F4309709F4C4
:1009000054C0E130F10571F4C9016CE370E00E945C
:10091000341644E6469F9001479F300D1124280F5E
:10092000391F03C0E230F10519F099249A9401C0EF
:10093000912C88E2C82E82E0D82ECE0101967C014F
:100940008824839440E0D601BE90AE906D01C90129
:10095000B5010E9434166115710541F4E230F105CC
:10096000B1F48820A1F04330A1F411C0A62FAF70DC
:10097000B0E0A05FBD4F9C916A9DD0016B9DB00D12
:100980007A9DB00D11242A1B3B0B812C03C09FE3E1
:1009900001C090E0892D8078982B990CD7019D9308
:1009A0007D014F5F443079F605C080E489838A83F6
:1009B0008B838C83BE016F5F7F4FC8010E947207DB
:1009C0000F900F900F900F90DF91CF911F910F918B
:1009D000FF90EF90DF90CF90BF90AF909F908F905F
:1009E0000895FC01228133816217730721F073831C
:1009F00062830C9460040895DC0116962C9116977E
:100A000021110EC021E016962C931697ED91FC91C2
:100A1000119717962C912770286022830C946004FC
:100A20000895CF93DF93FC0124813581621773070A
:100A300051F0EC01758364830E94FC04CE01DF91C8
:100A4000CF910C946004DF91CF910895DC0116964C
:100A50002C911697222361F016961C921697ED9111
:100A6000FC91119717962C91277022830C946004A7
:100A70000895DC0116963C91169721E032271696D0
:100A80003C931697ED91FC91119717962C91277036
:100A9000311138E0232B22830C9460048F929F92B3
:100AA000AF92BF92CF92DF92EF92FF920F931F937C
:100AB000CF93DF93DA01CD91DC91FB01848595859D
:100AC000C817D9070CF04CC0CE01880F991F0284BB
:100AD000F385E02DE80FF91F80809180C170DD273C
:100AE000F1E0CF27209719F484E690E002C08CE96A
:100AF0009FEF59016A017801E80EF91EB701C401A0
:100B00000E942402892B99F4E00EF11EB701C40162
:100B10000E942402892B71F4B701600F711FC40178
:100B20000E942402892BF9F023E030E005C021E087
:100B300030E002C022E030E0D5018D919C91119708
:100B400001968217930744F0F50111821082D601B5
:100B50008D919C91119701968D939C93CE0105C028
:100B600081E090E002C08FEF9FEFDF91CF911F9166
:100B70000F91FF90EF90DF90CF90BF90AF909F903C
:100B80008F900895F89482E08093B0008093B10034
:100B900094E69093B3001092B20080937000789422
:100BA000EEEFF2E080831482818160E00C94F20227
:100BB0001F920F920FB60F9211242F933F934F93D2
:100BC0005F936F937F938F939F93AF93BF93EF93B5
:100BD000FF938091FF020E94D60120910303309180
:100BE00004032F5F3F4F309304032093030390913E
:100BF0000203953618F096E09093FE029091FE0263
:100C00009430C9F128F4923069F09330D1F05EC08D
:100C1000953009F451C0963009F058C091E0909396
:100C2000CF0351C0811152C02091030330910403BE
:100C30002436310508F442C01092CF03109202030B
:100C40001CC0813009F042C0E091020391E09E0F88
:100C500090930203F0E02091030330910403EE0F20
:100C6000FF1FE250FD4F308727831092040310923C
:100C7000030394E029C0811117C0E091020391E0C1
:100C80009E0F90930203F0E0209103033091040340
:100C9000EE0FFF1FE250FD4F3087278310920403B1
:100CA0001092030393E010C02091030330910403DA
:100CB0002536310558F007C0811108C01092040391
:100CC0001092030303C095E09093FE0290910103FC
:100CD0009923B9F081110AC080910003882321F083
:100CE0008091000361E009C02D9A0BC08091000340
:100CF000882331F08091000360E00E94C20201C0AD
:100D00002D98FF91EF91BF91AF919F918F917F911E
:100D10006F915F914F913F912F910F900FBE0F9068
:100D20001F901895CF93DF93EC018BA99CA9A0E0AD
:100D3000B0E08DAB9EABAFABB8AF81E090E099ABCC
:100D400088AB60E070E08A8D9B8D0E9411056DA9D3
:100D50007EA98A8D9B8D0E94F1048A8D9B8DDF91E7
:100D6000CF910C94FC048F929F92AF92BF92CF923E
:100D7000DF92EF92FF920F931F93CF93DF93FC01CB
:100D8000F084F11002C0E0E040C0EC010E947A0360
:100D9000088119812A813B816017710782079307B7
:100DA00068F08A849B84AC84BD84080D191D2A1DBB
:100DB0003B1D061717072807390728F7E985EE2393
:100DC00011F1CC80DD80EE80FF806A857B858C858B
:100DD0009D852E853F854889598949015A01FFEF34
:100DE0008F1A9F0AAF0ABF0A8E869F86A88AB98A81
:100DF0000E942416C60ED71EE81EF91EC882D9828C
:100E0000EA82FB8202C01886EF2D8E2FDF91CF91F0
:100E10001F910F91FF90EF90DF90CF90BF90AF9018
:100E20009F908F900895CF92DF92EF92FF92CF9391
:100E3000DF93EC01CA84DB84EC84FD840E947A0396
:100E4000688379838A839B836C837D838E839F836E
:100E500081E08987CA86DB86EC86FD86888781E00B
:100E600090E0A0E0B0E08E879F87A88BB98BDF91E0
:100E7000CF91FF90EF90DF90CF900895CF93DF93C5
:100E8000DC015A96ED91FC915B9726812223A9F013
:100E9000EC01888D998D0E9413078A8D9B8D0E948D
:100EA0002605888D998D0E94B3068823D1F38A8DFB
:100EB0009B8DDF91CF910C94FC04DF91CF9108952D
:100EC000009769F0FC0101900020E9F73197AF012C
:100ED000481B590BBC018FED93E00C94A30080E0FC
:100EE00090E00895CF92DF92EF92FF920F931F93BD
:100EF000CF93DF931F92CDB7DEB76C01F62E7983C7
:100F00000E94560460E4C6010E94D003C6010E94FC
:100F10003304C6010E94560460ECC6010E94D0034F
:100F20000F2D7981172F780184E0E80EF11CF8016C
:100F300061918F01C6010E94D0030E151F05B9F7FC
:100F4000C6010E943304C6010E945604F601628164
:100F50006F706058C6010E94D003C6010F90DF91E8
:100F6000CF911F910F91FF90EF90DF90CF900C9455
:100F70003304EF92FF920F931F93CF93DF93CDB77C
:100F8000DEB79E01235F3F4F4EE352E060E070E02A
:100F900080E090E00E9407188C010F5F1F4FC8018E
:100FA0000E94D5167C01009759F483EE92E00E94CE
:100FB00060078BEF92E00E94600780E090E00FC036
:100FC0009E01235F3F4F4EE352E0B8010E94071895
:100FD000C7010E946007C7010E946A17C801DF911C
:100FE000CF911F910F91FF90EF900895CF93DF93D2
:100FF000CDB7DEB72C970FB6F894DEBF0FBECDBFCE
:10100000789484B5826084BD84B5816084BD85B5E3
:10101000826085BD85B5816085BD80916E008160EF
:1010200080936E0010928100809181008260809395
:101030008100809181008160809381008091800097
:101040008160809380008091B10084608093B100C2
:101050008091B00081608093B00080917A008460BC
:1010600080937A0080917A00826080937A008091E8
:101070007A00816080937A0080917A008068809302
:101080007A001092C1002FED33E0E091EF03F09170
:10109000F00382E08083E091EB03F091EC03108297
:1010A000E091ED03F091EE038FEC80831092F70353
:1010B000E091F303F091F40386E08083E091F10383
:1010C000F091F203808180618083E091F103F091DF
:1010D000F203808188608083E091F103F091F20354
:1010E000808180688083E091F103F091F203808138
:1010F0008F7D80838AE392E09F938F938EE392E0CB
:101100009F938F933F932F930E94B90761E08AE0EA
:101110000E94F20260E08AE00E94C20282E190E056
:101120000E94D5165C01DC0119961C921997FC01EE
:1011300012861386148615861E961D921D921D9288
:101140001C9251970E947A03F50160837183828318
:10115000938310861186B092D303A092D20382E1CA
:1011600090E00E94D5166C01DC0119961C9219972B
:10117000FC0112861386148615861E961D921D92FA
:101180001D921C9251970E947A03F601608371832D
:1011900082839383648375838683978311E01187A9
:1011A0008AEF90E0A0E0B0E082879387A487B587BC
:1011B000108781E090E0A0E0B0E086879787A08B61
:1011C000B18BD0920101C092000188E090E00E94B2
:1011D000D5167C01DC0111961C921E9213961C926E
:1011E0001E92129715961C921E92149716961C9397
:1011F000169717961C9283E090E00E94D5168C01FA
:1012000089E0F801808388E0818360E089E00E94C2
:10121000F20260E0D80111968C910E94F20260E027
:10122000F80180810E94C20260E0D80111968C9181
:101230000E94C202F70111830083878187700F909B
:101240000F900F900F900F900F909681911198E052
:10125000892BD80112968C93C7010E946004F092EA
:10126000D103E092D00380E490E00E94D5168C0177
:10127000FC0110821182128213821786108A118A51
:10128000128A138A148A158A168A178A0E947A0388
:10129000D80116966D937D938D939C9319971E9606
:1012A0001C921E971F961C921F9781E090E0D1968A
:1012B0009C938E93D097D2961C92D297D4961C92E0
:1012C0001E92D397F80115AA16AA17AA10AED9969E
:1012D0001D921D921D921C92DC9799249394DD9689
:1012E0009C92DD97DE969C92DE97DF969C92DF972C
:1012F0001596BC92AE9214970E947A03F801668309
:101300007783808791879686178680E69AEEA0E09D
:10131000B0E0808B918BA28BB38BD18EC08EF38E7D
:10132000E28E88E693E0958F848F81E090E00E94C2
:10133000D5162BE0F22EF092FF0210920103D80195
:101340005F969C938E935E970E94C2051093D5037F
:101350000093D403F092FF02109201038E010F5FFD
:101360001F4FC8010E94C20509871A87E090D40365
:10137000F090D503F7013696FC87EB87CF010E94EA
:10138000B306882329F0D701DD968C918111A1C283
:10139000F70180A991A9049719F082A9882371F017
:1013A000F701808D918D0E94B306882339F0D70113
:1013B0005A968D919C915B970E943905F701068C96
:1013C000F78DE02DFE83ED83E5E0F3E0D7019B96FA
:1013D000FC93EE939A978091020390E09D969C93E4
:1013E0008E939C978091CF0390E09F969C938E93D1
:1013F0009E978091FE02853009F045C280910703D7
:1014000090910803885891098D35910588F4809151
:101410000203843041F48091090390910A0380977C
:10142000479708F477C280910203843408F059C2C8
:10143000809102038A31E8F18091050390910603BF
:10144000843F914008F441C08091070390910803C4
:1014500085974B9770F5EBE0F3E082E090E0812C0C
:10146000912C5401AC014F5F5F4F2091020330E09B
:10147000421753075CF4DF0112972D913C912750DE
:1014800031092730310508F489C2CA0101979595C1
:101490008795F70191A780A70C971CF411A610A6B9
:1014A00008C0D70184A295A2A6A2B7A284E090E0CA
:1014B000CCC3809102038A3108F451C080910503A6
:1014C000909106038032934060F4F70111A610A6B4
:1014D0002FEF3FEFA901D70124A335A346A357A3BC
:1014E0000EC08091070390910803C697869708F471
:1014F00072C235C0D70184A295A2A6A2B7A28BE082
:1015000090E0A3C320813181255231092B3131056F
:1015100008F071C2880C991CAA1CBB1C689480F846
:1015200002963496AC014F5F5F4F2091020330E08A
:101530004217530754F4DF0112972D913C912C5020
:1015400031092B303105F0F2CA0101979595879545
:10155000F70191A780A70C976CF611A610A68091B1
:101560000203823208F447C0809107039091080378
:101570000697079708F03FC0EBE0F3E082E090E0C9
:10158000812C912C54019C012F5F3F4F409102030D
:1015900050E024173507E4F4DF0112974D915C9178
:1015A00011974E5151094731510508F031C2880C4D
:1015B000991CAA1CBB1C689480F840815181349608
:1015C000435051094530510510F40296DCCFC90152
:1015D000019795958795F70191A780A740971CF4EF
:1015E00011A610A608C0D70184A295A2A6A2B7A2F0
:1015F0008CE090E02AC36701B0E2CB0ED11C1C82C4
:101600001B8281E090E09A838983809102038D3070
:1016100008F473C009E713E09E012D5F3F4F498531
:101620005A85B6018D819E810E944E05892B09F055
:1016300064C09E012D5F3F4F49855A85B6018D815B
:101640009E810E944E05019709F057C09E012D5FB3
:101650003F4F49855A85B6018D819E810E944E0576
:10166000892B09F04AC0412C512C3201A12CB12CFC
:101670008091020390E029813A812817390784F587
:1016800009E713E09E012D5F3F4F49855A85B6015A
:101690008D819E810E944E054C019E012D5F3F4F22
:1016A00049855A85B6018D819E810E944E05E1E0F3
:1016B0008E16910449F4892B01F5440C551C661CC7
:1016C000771C689440F808C08928B9F40197A9F4F8
:1016D000440C551C661C771CFFEFAF1ABF0AC8CF1D
:1016E000D7019996BC92AE929897F70144A255A261
:1016F00066A277A281E090E0BEC01C821B8281E0DE
:1017000090E09A838983D7019C968D919C919D97B7
:10171000181619060CF067C09A96ED91FC919B97EC
:1017200022E030E03A8329838281938189974E9722
:1017300008F059C083E090E09A8389838481958181
:101740000B970A9708F04FC00CEB11E09E012D5F3C
:101750003F4F49855A85B6018D819E810E944E0575
:10176000892B09F040C00CEB11E09E012D5F3F4F2B
:1017700049855A85B6018D819E810E944E0501974B
:1017800091F5212C312C2101A12CB12C29813A81F8
:10179000D7019C968D919C919D97281739070CF045
:1017A00086C10CEB11E09E012D5F3F4F49855A85A4
:1017B000B6018D819E810E944E053C0133E0A31647
:1017C000B10409F032C10CEB11E09E012D5F3F4FD7
:1017D00049855A85B6018D819E810E944E05681605
:1017E000790609F422C1D7019A96ED91FC919B9755
:1017F00082819381C697869708F467C1B3C1A80117
:1018000042505109DA014D915C91495051094830DB
:10181000510508F0D1C1BC016F5F7F4FD8014D91D8
:101820005C91475051094730510508F084C7220F99
:10183000331F216002960C5F1F4F4091020350E05E
:101840004450510984179507D4F2019795958795CF
:10185000D70199969C938E9398978A970CF4ACC174
:10186000C901330FAA0BBB0BF70184A395A3A6A351
:10187000B7A389E090E091A380A3EBC182E08093BD
:10188000FE021092020361E070E080E090E00E94AE
:101890002E030091D4031091D503D801D0968D91D9
:1018A0009C91D197049731F48091D2039091D30306
:1018B0000E94B306F80180A991A9039709F063C4B7
:1018C0008091D2039091D3030E94B3068111CDC4BD
:1018D0005AC4D7015A968D919C915B970E94260518
:1018E00057CD8091090390910A03825491098E97F4
:1018F00008F09ECD80E090E040E050E0BA01FC01AD
:10190000E55FFC4F208131812950310929303105B3
:10191000C0F08ECD80910B0390910C03099709972D
:1019200008F081CDD70199961C921E9298972FEFBF
:101930003FEFA90194962D933D934D935C93979718
:101940001DC0FC01E35FFC4F20813181275131092B
:1019500022313105B0F4440F551F661F771F4160D7
:1019600004968038910559F680E290E0F70191A73E
:1019700080A7D70144A355A366A377A383E090E093
:1019800064C120813181265031092730310508F0AA
:101990004FCD440F551F661F771FE2CF2081318145
:1019A000235131092F30310548F4880C991CAA1CA9
:1019B000BB1C689480F80296349654CD2081318106
:1019C0002A5031092930310508F073CD880C991C53
:1019D000AA1CBB1CF0CF8091090390910A03C69703
:1019E000869708F0BCCDEDE0F3E083E090E0812C39
:1019F000912C540197CD208131812C5031092A300E
:101A0000310508F0ACCD880C991CAA1CBB1C88CDF4
:101A10004D915C914C5051094B30510508F0EBCD84
:101A2000880C991CAA1CBB1CC8CD0CEB11E09E01B4
:101A30002D5F3F4F49855A85B6018D819E810E9459
:101A40004E054C0143E0A416B10481F40CEB11E007
:101A50009E012D5F3F4F49855A85B6018D819E813C
:101A60000E944E058816990609F0BDCE61147104D6
:101A700079F48A94892809F0B6CED201C101880F81
:101A8000991FAA1FBB1F1C012D01689420F80BC0D1
:101A90006A94672809F0A7CE892809F0A4CE220C01
:101AA000331C441C551C9FEFA91AB90A6FCE999696
:101AB000BC92AE929897F70124A235A246A257A2F3
:101AC00022E030E031A320A3C4C0848195814B97EC
:101AD000459708F047C0DF0116966F0126ECC20E4D
:101AE000D11C20E030E040E050E060E070E080E0B9
:101AF00090E00D911C9111970950110908301105C2
:101B000088F512960D911C911397015111090D3012
:101B10001105D8F401E00E947B1621601496AC15E3
:101B2000BD0539F7F70124A335A346A357A300E267
:101B30000E94961622A333A385E090E091A380A390
:101B400080E390E091A780A784C012960D911C912C
:101B50001397045011090530110520F401E00E948B
:101B60007B16DCCF80910203893340F08281938120
:101B7000895791098335910508F424C480910203A3
:101B8000823209F487C38281938189579109833511
:101B9000910508F490C4828193818C549109C59772
:101BA00008F4E7C480910203863408F07AC3809178
:101BB0000203883508F07CC380910203803209F06B
:101BC00080C3828193810697069708F07AC3848147
:101BD00095810997099708F074C39F012A5F3F4FC9
:101BE000BF01625C7F4F812C912C5401D9014D9132
:101BF0005C91465051094630510508F062C3D90145
:101C000012964D915C9113974951510943315105F9
:101C100008F09EC5D501C401880F991FAA1FBB1FDC
:101C20004C015D01689480F82C5F3F4F2617370701
:101C3000E9F62EE030E0F70131A720A7D70184A212
:101C400095A2A6A2B7A28FE090E091969C938E9366
:101C50009097F70184A095A0A6A0B7A082E08093FA
:101C6000FE0210920203FFEF8F169F06AF06BF061B
:101C7000D9F1F70180829182A282B382FAE08F16B5
:101C8000F4E59F06A104B104A1F4C7010E943E0738
:101C90008B859C850E941307D7015A968D919C9144
:101CA0005B970E94FC04F70196AD81E0892786AF1F
:101CB0001BC0F7E08F16F1EC9F06F7E3AF06B10407
:101CC00099F4C7010E943E078B859C850E941307EB
:101CD000D7015A968D919C915B970E94FC04F70165
:101CE00097AD81E0892787AFE8E0F1E080E090E000
:101CF000D701DE962C912223A1F04081518162818F
:101D0000738184169506A606B70659F42CE0289F21
:101D1000F001299FF00D1124E85FFE4F0085118529
:101D200015C0D701DF962C91222349F044815581BB
:101D30006681778184169506A606B70639F3019663
:101D40003C9686319105A1F600E010E06801B1E013
:101D5000CB1AD108E6E1CE16D10408F03FC001311C
:101D6000110539F0D7015A968D919C915B970E948D
:101D7000FC048B859C850E941307BAE0CB16D10426
:101D800068F5F70180A991A9019741F525A936A920
:101D900047A950AD283EF3E03F0741055105D8F46F
:101DA000D701D2961C92AAE0B0E00E9470160A30C9
:101DB000110531F4F70165AB76AB87AB90AF0BC083
:101DC000DC01CB01800F911FA11DB11DF70185AB77
:101DD00096ABA7ABB0AF60E070E0C6C107311105AC
:101DE00008F057CDF801EC5CFF4F0C946A16D70150
:101DF000D0968D919C91D1978130910561F4D596C3
:101E00002D913D914D915C91D8972115310541055A
:101E1000510529F43ECD049709F03BCD75C00C3037
:101E2000110549F5CA01B90124E630E040E050E06F
:101E30000E9448164B015C016C33710581059105C8
:101E400020F081E0F70182AB24CDACE3B0E00E944A
:101E500070169B01AC01280D391D4A1D5B1DA8EEB3
:101E6000B3E00E947016D701D9966D937D938D9340
:101E70009C93DC9709C0AAE0B0E00E947016F701BD
:101E800061AF72AF83AF94AFD7015C96ED91FC91D7
:101E90005D970995412C512C32014394F70145AAD5
:101EA00056AA67AA70AE81AC92ACA3ACB4AC048164
:101EB00015810E947A03D8016D937D938D939C9335
:101EC0001397F801648375838683978381E0818704
:101ED0001A968D929D92AD92BC921D9718968C93F6
:101EE00046865786608A718A62E070E0D7015A960A
:101EF0008D919C915B970E941105F70165A976A9C8
:101F0000828D938D0E94F10483E090E0D701D196F9
:101F10009C938E93D09762E070E05A968D919C913D
:101F20005B970E941105B5CCF70180A991A9029792
:101F3000039708F0AECC81E090E091AB80AB60E01D
:101F400070E0828D938D0E941105D701D5961D9268
:101F50001D921D921C92D89760E070E006C1D701D7
:101F6000D0968D919C91D197039709F092CC84E003
:101F700090E0D1969C938E93D09758968D919C919A
:101F800059970E94130785CCD7015A96ED91FC9181
:101F90005B979781992309F47CCC91509783A0811A
:101FA000B18197700DC0D7015A96ED91FC915B9766
:101FB0009781973008F06DCC9F5F9783A081B181A6
:101FC0008681811188E0982B12969C93CF010E9404
:101FD00060045FCCF701828D938D0E94390559CC46
:101FE000D701DD968C91882319F0C7010E943E0726
:101FF000F70115AE4ECCD701DD968C91811103C04F
:10200000C7010E943E0781E0F70185AF42CCD701AE
:10201000D0968D919C91D197019709F03ACCD596A5
:102020006D917D918D919C91D8976A307105810554
:10203000910560F02AE030E040E050E00E94481650
:10204000F70125AB36AB47AB50AF07C0D701D596EC
:102050001D921D921D921C92D897F70165A976A931
:10206000828D938D0E94F104D701D2961C9211CCDF
:10207000F70180A991A9019709F00BCC15AA16AA1E
:1020800017AA10AE12AA60E070E0828D938D78C01E
:10209000F70180A991A9019709F0FBCB22E030E07C
:1020A00031AB20AB61E070E0828D938D0E94110511
:1020B000D7011496ED91FC9115971086D5966D91E8
:1020C0007D918D919C91D897D4967C936E93D39764
:1020D000611571058105910509F4DBCB24E630E03B
:1020E00040E050E00E9448164B015C01ACE3B0E0D8
:1020F0000E9470169B01AC01280D391D4A1D5B1D05
:10210000A8EEB3E00E947016F70161AF72AF83AF23
:1021100094AF808D918D0E941307D701D9968D9031
:102120009D90AD90BC90DC9714960D911C911597E5
:102130000E947A03F80160837183828393836483AE
:1021400075838683978381E0818782869386A486C0
:10215000B586808781E090E0A0E0B0E08687978731
:10216000A08BB18B61E070E0D7015A968D919C9164
:102170005B970E941105F70165A976A9828D938D61
:102180000E94F10486CBD801D0968D919C91D19775
:102190008230910509F05EC08090D2039090D30305
:1021A000D40118968C9181110CC08091D00390912C
:1021B000D1030E9439050E946803C8010E9492065B
:1021C00051C0C4010E94B306B82E882391F0E0905C
:1021D000D003F090D103C7010E94FC0460E070E0DE
:1021E000C7010E94F1040E946803C8010E94920680
:1021F00026C0F401C284D384E484F58440805180F5
:10220000628073800E947A03C40CD51CE61CF71C04
:10221000A7019601261B370B480B590BCA01B901C0
:1022200028EE33E040E050E00E944816B9016F5FAD
:102230007F4F8091D0039091D1030E94F10480914F
:102240000001909101010E94B306882359F0B1105A
:1022500009C019C0039731F061E070E080E090E0C0
:102260000E942E030E94A30181C80E9468038091EE
:10227000D0039091D103FC01628173816F5F7F4F26
:102280000E94F104EFCF8091D0039091D1030E947E
:102290003905E8CF828193810A97099708F4EDC048
:1022A00072CC828193810C970B9708F4CEC17FCCBE
:1022B00082819381855891098B35910508F42CC250
:1022C0007BCCD7019C962D903C909D97B6E02B1629
:1022D00031040CF4D3CA8F010A5F1F4F95EC892E8D
:1022E0009DE9992E9CE1A92E91E8B92E23E0C22EFA
:1022F000D12CF8016081718134976080718080E019
:1023000090E00E9405156D837E838F839887B301CB
:1023100080E090E00E9405152B013C012DEC3CEC87
:102320004CE45FE30E94B7159B01AC016D817E8197
:102330008F8198850E94581487FD19C02DEC3CECC4
:102340004CE45FE36D817E818F8198850E94B71593
:102350009B01AC01C301B2010E945814E82F880F01
:10236000FF0BEE27FF0FEE1FFF27319602C0E0E0C4
:10237000F0E0A501940163E971E080E091E00E9442
:1023800024164F01FF0FAA08BB0886269726A82609
:10239000B926FFEFCF1ADF0A0E5F1F4FC214D30416
:1023A00009F0A7CFD70194968D929D92AD92BC92E1
:1023B000979780E290E099969C938E9398978FEFF1
:1023C0009FEF43CC84819581CA97899708F0D6CB3B
:1023D0009F012A5F3F4F812C912C540143E050E034
:1023E000D9016D917C916A5071096930710508F0CD
:1023F000C5CBD90112966D917C91139766517109E5
:102400006131710550F5D501C401880F991FAA1FCC
:10241000BB1F4C015D01689480F84E5F5F4F2C5FDD
:102420003F4F4B335105E1F69F012A583F4FD901E9
:102430002D913C912A5031092930310508F09ECB6D
:102440002CE130E0F70131A720A7D70184A295A2A3
:10245000A6A2B7A28AE090E0F8CBD90112966D91BE
:102460007C911397665071096730710508F086CB2F
:10247000880C991CAA1CBB1CD0CF20910203CF0151
:10248000820F911D820F911DDC0112978D919C91FD
:102490000A97099708F077CBD70199961C921E925C
:1024A00098972FEF3FEFA90194962D933D934D936D
:1024B0005C9397975DC180910203813208F46BCBE6
:1024C00084819581CA97899708F065CB9F012A5F1F
:1024D0003F4F812C912C540143E050E0D9016D9184
:1024E0007C916A5071096930710508F054CBD901AB
:1024F00012966D917C911397665171096131710546
:1025000040F5D501C401880F991FAA1FBB1F4C01BC
:102510005D01689480F84E5F5F4F2C5F3F4F433200
:102520005105E1F69F012A5B3F4FD9012D913C9166
:102530002A5031092930310508F02DCB20E130E057
:10254000F70131A720A7D70184A295A2A6A2B7A21E
:102550000FC1D90112966D917C9113976650710944
:102560006730710508F017CB880C991CAA1CBB1C9E
:10257000D2CF80910203843029F4848195818097A1
:102580004797F0F080910203843408F40BCB8481E8
:10259000958189549109C39708F004CB9F012A5F64
:1025A0003F4FBF016A577F4F812C912C5401D901B5
:1025B0004D915C91495051094930510590F0F2CA52
:1025C0008681978109970997E8F6F70111A610A669
:1025D0002FEF3FEFA901D70124A335A346A357A3AB
:1025E000CAC0D90112964D915C9113974651510979
:1025F00041315105D0F4D501C401880F991FAA1F9C
:10260000BB1F4C015D01689480F82C5F3F4F26177B
:10261000370769F620E230E0F70131A720A7D7019C
:1026200084A295A2A6A2B7A2A6C0D90112964D91E6
:102630005C911397465051094730510508F0B2CAD2
:10264000880C991CAA1CBB1CE0CF8481958109973A
:10265000099708F0ACCA868197818C974F9708F04C
:10266000A6CA8085918589974D9708F0A0CA9F01D9
:10267000265F3F4F812C912C540145E050E0D90159
:102680006D917C916C5071096B30710508F08FCAA7
:10269000D90112966D917C9113976E517109673132
:1026A000710550F5D501C401880F991FAA1FBB1FE2
:1026B0004C015D01689480F84E5F5F4F2C5F3F4F87
:1026C00045345105E1F69F0126573F4FD9012D9121
:1026D0003C912C5031092B30310508F068CA20E2BA
:1026E00030E0F70131A720A7D70184A295A2A6A2C6
:1026F000B7A288E090E0A9CAD90112966D917C91A9
:102700001397695071096930710508F050CA880C37
:10271000991CAA1CBB1CD0CF84819581825491093D
:102720008E9708F049CA8F01045C1F4F8DE190E03D
:1027300020E030E082C8D8014D915C9148515109A8
:102740004231510510F0CB0180C8220F331F72C8EF
:10275000D90112964D915C91139749505109493016
:10276000510508F0AECD880C991CAA1CBB1C5CCA94
:1027700086E090E06ACA87E090E067CAEFEDF3E098
:102780001382128288EE93E0A0E0B0E08483958308
:10279000A683B7838CE292E09183808385EC90E0FE
:1027A0009587848784EC90E09787868780EC90E01B
:1027B000918B808B81EC90E0938B828B82EC90E00C
:1027C000958B848B86EC90E0978B868B118E128E86
:1027D000138E148E08955058BB27AA270E94031405
:1027E0000C947D150E946F1538F00E94761520F02C
:1027F00039F49F3F19F426F40C946C150EF4E0950F
:10280000E7FB0C946615E92F0E948E1558F3BA1752
:10281000620773078407950720F079F4A6F50C94F6
:10282000B0150EF4E0950B2EBA2FA02D0B01B901B7
:1028300090010C01CA01A0011124FF27591B99F036
:10284000593F50F4503E68F11A16F040A22F232F42
:10285000342F4427585FF3CF469537952795A79592
:10286000F0405395C9F77EF41F16BA0B620B730B39
:10287000840BBAF09150A1F0FF0FBB1F661F771FAA
:10288000881FC2F70EC0BA0F621F731F841F48F45F
:10289000879577956795B795F7959E3F08F0B0CFE8
:1028A0009395880F08F09927EE0F979587950895CF
:1028B0000E94421508F481E008950E9471140C945E
:1028C0007D150E94761558F00E946F1540F029F48E
:1028D0005F3F29F00C94661551110C94B1150C94BE
:1028E0006C150E948E1568F39923B1F3552391F36B
:1028F000951B550BBB27AA2762177307840738F06F
:102900009F5F5F4F220F331F441FAA1FA9F335D0CB
:102910000E2E3AF0E0E832D091505040E695001C7F
:10292000CAF72BD0FE2F29D0660F771F881FBB1F39
:10293000261737074807AB07B0E809F0BB0B802D17
:10294000BF01FF2793585F4F3AF09E3F510578F043
:102950000C9466150C94B1155F3FE4F3983ED4F3E4
:10296000869577956795B795F7959F5FC9F7880F17
:10297000911D9695879597F90895E1E0660F771F69
:10298000881FBB1F621773078407BA0720F0621BFA
:10299000730B840BBA0BEE1F88F7E09508950E9425
:1029A000D6146894B1110C94B11508950E9496152F
:1029B00088F09F5798F0B92F9927B751B0F0E1F000
:1029C000660F771F881F991F1AF0BA95C9F714C0B0
:1029D000B13091F00E94B015B1E008950C94B0159B
:1029E000672F782F8827B85F39F0B93FCCF38695E9
:1029F00077956795B395D9F73EF490958095709546
:102A000061957F4F8F4F9F4F0895E89409C097FBC2
:102A10003EF490958095709561957F4F8F4F9F4FB5
:102A20009923A9F0F92F96E9BB279395F6958795F9
:102A300077956795B795F111F8CFFAF4BB0F11F4BC
:102A400060FF1BC06F5F7F4F8F4F9F4F16C0882363
:102A500011F096E911C0772321F09EE8872F762F99
:102A600005C0662371F096E8862F70E060E02AF0DA
:102A70009A95660F771F881FDAF7880F96958795C6
:102A800097F90895990F0008550FAA0BE0E8FEEF9B
:102A900016161706E807F907C0F012161306E40722
:102AA000F50798F0621B730B840B950B39F40A261B
:102AB00061F0232B242B252B21F408950A2609F4F9
:102AC000A140A6958FEF811D811D089597F99F67FD
:102AD00080E870E060E008959FEF80EC08950024A6
:102AE0000A941616170618060906089500240A9473
:102AF00012161306140605060895092E0394000CF9
:102B000011F4882352F0BB0F40F4BF2B11F460FF87
:102B100004C06F5F7F4F8F4F9F4F089557FD9058B0
:102B2000440F551F59F05F3F71F04795880F97FB91
:102B3000991F61F09F3F79F087950895121613064B
:102B40001406551FF2CF4695F1DF08C0161617067A
:102B50001806991FF1CF86957105610508940895AF
:102B6000E894BB2766277727CB0197F908950E9441
:102B7000CA150C947D150E946F1538F00E947615C9
:102B800020F0952311F00C9466150C946C1511240B
:102B90000C94B1150E948E1570F3959FC1F3950F9B
:102BA00050E0551F629FF001729FBB27F00DB11DD1
:102BB000639FAA27F00DB11DAA1F649F6627B00D61
:102BC000A11D661F829F2227B00DA11D621F739F4A
:102BD000B00DA11D621F839FA00D611D221F749F58
:102BE0003327A00D611D231F849F600D211D822F9F
:102BF000762F6A2F11249F5750409AF0F1F08823C6
:102C00004AF0EE0FFF1FBB1F661F771F881F9150F2
:102C10005040A9F79E3F510580F00C9466150C9426
:102C2000B1155F3FE4F3983ED4F3869577956795A9
:102C3000B795F795E7959F5FC1F7FE2B880F911D1C
:102C40009695879597F90895DB018F939F930E943E
:102C50007016BF91AF91A29F800D911DA39F900D03
:102C6000B29F900D1124089597FB072E16F400943F
:102C700007D077FD09D00E94B21607FC05D03EF4BC
:102C8000909581959F4F0895709561957F4F089518
:102C9000A1E21A2EAA1BBB1BFD010DC0AA1FBB1F60
:102CA000EE1FFF1FA217B307E407F50720F0A21BD2
:102CB000B30BE40BF50B661F771F881F991F1A943F
:102CC00069F760957095809590959B01AC01BD0169
:102CD000CF010895EE0FFF1F0590F491E02D0994A8
:102CE0000E94C616A59F900DB49F900DA49F800DC5
:102CF000911D112408950F93083090F0982F872F7D
:102D0000762F652F542F432F322F22270850F4CFD0
:102D1000220F331F441F551F661F771F881F991FDF
:102D20000A95B2F70F91089597FB10F816940008D2
:102D30000F93083098F00850232F342F452F562F2B
:102D4000672F782F892F902DF4CF0594979587952D
:102D50007795679557954795379527950A95AAF7DB
:102D60000F910895AA1BBB1B51E107C0AA1FBB1FEF
:102D7000A617B70710F0A61BB70B881F991F5A9507
:102D8000A9F780959095BC01CD010895A29FB0014F
:102D9000B39FC001A39F700D811D1124911DB29F8F
:102DA000700D811D1124911D0895CF93DF93823002
:102DB000910510F482E090E0E0917E04F0917F04B0
:102DC00020E030E0C0E0D0E0309711F14081518147
:102DD00048175907C0F04817590761F48281938159
:102DE000209719F09B838A832BC090937F04809354
:102DF0007E0426C02115310519F04217530718F437
:102E00009A01BE01DF01EF010280F381E02DDCCFEA
:102E10002115310509F1281B390B2430310590F4B7
:102E200012968D919C9113976115710521F0FB010C
:102E30009383828304C090937F0480937E04FD017A
:102E4000329644C0FD01E20FF31F8193919322500B
:102E500031092D933C933AC020917C0430917D043C
:102E6000232B41F4209104013091050130937D041E
:102E700020937C042091020130910301211531053A
:102E800041F42DB73EB74091060150910701241B34
:102E9000350BE0917C04F0917D04E217F307A0F478
:102EA0002E1B3F0B2817390778F0AC014E5F5F4FA0
:102EB0002417350748F04E0F5F1F50937D04409351
:102EC0007C048193919302C0E0E0F0E0CF01DF91B8
:102ED000CF9108950F931F93CF93DF93009709F439
:102EE0008CC0FC0132971382128200917E041091F3
:102EF0007F040115110581F420813181820F931F18
:102F000020917C0430917D042817390779F5F093DE
:102F10007D04E0937C0471C0D80140E050E0AE171E
:102F2000BF0750F412962D913C911397AD012115D6
:102F3000310509F1D901F3CF9D01DA0133832283F1
:102F400060817181860F971F8217930769F4EC01E6
:102F500028813981260F371F2E5F3F4F3183208311
:102F60008A819B8193838283452B29F4F0937F048C
:102F7000E0937E0442C01396FC93EE931297ED010A
:102F8000499159919E01240F351FE217F30771F4FF
:102F900080819181840F951F029611969C938E9348
:102FA0008281938113969C938E931297E0E0F0E0D8
:102FB000D80112968D919C911397009719F0F80102
:102FC0008C01F6CF8D919C9198012E5F3F4F820F1F
:102FD000931F20917C0430917D042817390769F4F0
:102FE000309729F410927F0410927E0402C013825D
:102FF000128210937D0400937C04DF91CF911F9186
:103000000F91089581E090E0F8940C94E81AAEE0F6
:10301000B0E0EDE0F8E10C94BF1A8C01CA0146E083
:103020004C831A83098377FF02C060E070E8FB01DC
:103030003197FE83ED83A901BC01CE0101960E9468
:1030400033184D815E8157FD0AC02F8138854217A4
:1030500053070CF49A01F801E20FF31F10822E9629
:10306000E4E00C94DB1AACE0B0E0E9E3F8E10C94A6
:10307000B11A7C016B018A01FC01178216828381DF
:1030800081FFBDC1CE0101964C01F7019381F6018C
:1030900093FD859193FF81916F01882309F4ABC162
:1030A000853239F493FD859193FF81916F018532CB
:1030B00029F4B70190E00E941B1AE7CF512C312C64
:1030C00020E02032A0F48B3269F030F4803259F0E5
:1030D000833269F420612CC08D3239F0803339F4A9
:1030E000216026C02260246023C0286021C027FD03
:1030F00027C030ED380F3A3078F426FF06C0FAE0EA
:103100005F9E300D1124532E13C08AE0389E300D7F
:103110001124332E20620CC08E3221F426FD6BC1A7
:10312000206406C08C3611F4206802C0883641F451
:10313000F60193FD859193FF81916F018111C1CFBC
:10314000982F9F7D9554933028F40C5F1F4FFFE319
:10315000F9830DC0833631F0833771F0833509F080
:103160005BC022C0F801808189830E5F1F4F442419
:103170004394512C540115C03801F2E06F0E711CBC
:10318000F801A080B18026FF03C0652D70E002C069
:103190006FEF7FEFC5012C870E94101A2C0183016D
:1031A0002C852F77222E17C03801F2E06F0E711C8C
:1031B000F801A080B18026FF03C0652D70E002C039
:1031C0006FEF7FEFC5012C870E94051A2C012C851B
:1031D0002068222E830123FC1BC0832D90E048161B
:1031E0005906B0F4B70180E290E00E941B1A3A94AD
:1031F000F4CFF50127FC859127FE81915F01B7018E
:1032000090E00E941B1A31103A94F1E04F1A5108D5
:103210004114510471F7E5C0843611F0893639F54F
:10322000F80127FF07C060817181828193810C5F63
:103230001F4F08C060817181072E000C880B990B0D
:103240000E5F1F4F2F76722E97FF09C090958095C5
:10325000709561957F4F8F4F9F4F2068722E2AE0A7
:1032600030E0A4010E94531AA82EA81844C0853744
:1032700029F42F7EB22E2AE030E025C0F22FF97F0C
:10328000BF2E8F36C1F018F4883579F0B4C080377E
:1032900019F0883721F0AFC02F2F2061B22EB4FE75
:1032A0000DC08B2D8460B82E09C024FF0AC09F2F4B
:1032B0009660B92E06C028E030E005C020E130E07D
:1032C00002C020E132E0F801B7FE07C060817181E1
:1032D000828193810C5F1F4F06C06081718180E005
:1032E00090E00E5F1F4FA4010E94531AA82EA81849
:1032F000FB2DFF777F2E76FE0BC0372D3E7FA5146A
:1033000050F474FE0AC072FC08C0372D3E7E05C022
:10331000BA2C372D03C0BA2C01C0B52C34FF0DC018
:10332000FE01EA0DF11D8081803311F4397E09C060
:1033300032FF06C0B394B39404C0832F867809F09B
:10334000B39433FD13C030FF06C05A2CB31418F4E5
:10335000530C5B18B32CB31468F4B70180E290E00F
:103360003C870E941B1AB3943C85F5CFB31410F42C
:103370003B1801C0312C34FF12C0B70180E390E04C
:103380003C870E941B1A3C8532FF17C031FD03C0E9
:1033900088E790E002C088E590E0B7010CC0832F79
:1033A000867859F031FF02C08BE201C080E237FD20
:1033B0008DE2B70190E00E941B1AA51438F4B70102
:1033C00080E390E00E941B1A5A94F7CFAA94F4016C
:1033D000EA0DF11D8081B70190E00E941B1AA11037
:1033E000F5CF332009F451CEB70180E290E00E947E
:1033F0001B1A3A94F6CFF7018681978102C08FEFAE
:103400009FEF2C96E2E10C94CD1AFC0105906150DF
:1034100070400110D8F7809590958E0F9F1F0895EA
:10342000FC016150704001900110D8F78095909593
:103430008E0F9F1F08950F931F93CF93DF93FB0170
:10344000238121FD03C08FEF9FEF28C022FF16C00C
:1034500046815781248135814217530744F4A08166
:10346000B1819D012F5F3F4F318320838C93268153
:1034700037812F5F3F4F3783268310C0EB01092F21
:10348000182F0084F185E02D0995892BE1F68E81B6
:103490009F8101969F838E83812F902FDF91CF9103
:1034A0001F910F910895FA01AA27283051F1203178
:1034B00081F1E8946F936E7F6E5F7F4F8F4F9F4FC8
:1034C000AF4FB1E03ED0B4E03CD0670F781F891F0A
:1034D0009A1FA11D680F791F8A1F911DA11D6A0FD8
:1034E000711D811D911DA11D20D009F468943F918B
:1034F0002AE0269F11243019305D3193DEF6CF018A
:103500000895462F4770405D4193B3E00FD0C9F74F
:10351000F6CF462F4F70405D4A3318F0495D31FDBC
:103520004052419302D0A9F7EACFB4E0A69597950F
:10353000879577956795BA95C9F7009761057105E5
:1035400008959B01AC010A2E06945795479537952F
:103550002795BA95C9F7620F731F841F951FA01D89
:1035600008952F923F924F925F926F927F928F9227
:103570009F92AF92BF92CF92DF92EF92FF920F9302
:103580001F93CF93DF93CDB7DEB7CA1BDB0B0FB60C
:10359000F894DEBF0FBECDBF09942A8839884888C9
:1035A0005F846E847D848C849B84AA84B984C8845F
:1035B000DF80EE80FD800C811B81AA81B981CE0F56
:1035C000D11D0FB6F894DEBF0FBECDBFED0108953B
:0435D000F894FFCF9D
:1035D400F4010000800480000B2000000C993700E7
:1035E4000B005A020B400000174137000D00600227
:1035F4000B000000345936000E00660208C10200B8
:103604003A2936000C006B0208E109000BA13700CF
:103614000F00760208E101002F81360010008502B8
:103624000C010E0002E9370014008E020C010200A6
:103634003C193600150095020C010A001C193700CC
:1036440012009A020C010600107E0F0013009E0265
:1036540008E10300336136001600A4020A140000D6
:1036640020F936001100AA02080100003D113600BD
:103674000100B102080108001D1137000200B50263
:10368400080104002D9136000300B90208010C0062
:103694000D9137000400BF020801020035513600C5
:1036A4000500C40208010A00155137000600C902CA
:1036B4000801060025D136000700CD0208010E00DE
:1036C40005D137000800D302080101003931360062
:1036D4000900D90208010900193137000A00DE0285
:1036E4003F065B4F666D7D077F6F777C395E79712E
:1036F40001000A006400E803000000003A01A3008E
:10370400D20081010301E100F500312E3900496E38
:1037140074657276616C6F6D65746572207665721E
:1037240073696F6E3A2025730A00537461727400D2
:1037340050617573650053746F70005374617274D3
:1037440020666173740042726967686E65737320E2
:10375400646F776E005570206172726F77005965DF
:103764006C6C6F7700426C7565005265640047723B
:1037740065656E00456E746572004D7574696E679B
:10378400004F6E650054776F00546872656500469B
:103794006F757200466976650053697800536576E3
:1037A400656E004569676874004E696E65005A6508
:1037B400726F004D656D6F727920616C6C6F63611F
:0E37C40074696F6E206572726F72000D0A00DC
:107800000C94343C0C94513C0C94513C0C94513CE1
:107810000C94513C0C94513C0C94513C0C94513CB4
:107820000C94513C0C94513C0C94513C0C94513CA4
:107830000C94513C0C94513C0C94513C0C94513C94
:107840000C94513C0C94513C0C94513C0C94513C84
:107850000C94513C0C94513C0C94513C0C94513C74
:107860000C94513C0C94513C11241FBECFEFD8E036
:10787000DEBFCDBF11E0A0E0B1E0ECE9FFE702C060
:1078800005900D92A230B107D9F712E0A2E0B1E065
:1078900001C01D92AD30B107E1F70E942D3D0C945F
:1078A000CC3F0C94003C982F959595959595959582
:1078B000905D8F708A307CF0282F295A8091C0000B
:1078C00085FFFCCF9093C6008091C00085FFFCCF60
:1078D0002093C6000895282F205DF0CF982F809127
:1078E000C00085FFFCCF9093C6000895EF92FF92F1
:1078F0000F931F93EE24FF2487018091C00087FD22
:1079000017C00894E11CF11C011D111D81E4E8164B
:1079100082E4F8068FE0080780E0180770F3E09132
:107920000401F091050109958091C00087FFE9CF1E
:107930008091C6001F910F91FF90EF9008950E94D3
:10794000763C982F8091C00085FFFCCF9093C600B5
:1079500091362CF490330CF09053892F089597555D
:10796000892F08951F930E949F3C182F0E949F3CCF
:107970001295107F810F1F9108951F93182F882350
:1079800021F00E94763C1150E1F71F9108951F935A
:10799000182F0E94763C803249F0809103018F5F5E
:1079A000809303018530C1F01F9108958091C0003C
:1079B00085FFFCCF84E18093C6008091C00085FFE5
:1079C000FCCF1093C6008091C00085FFFCCF80E102
:1079D0008093C6001F910895E0910401F091050184
:1079E00009951F9108950E94763C803241F0809164
:1079F00003018F5F80930301853081F008958091AA
:107A0000C00085FFFCCF84E18093C6008091C00058
:107A100085FFFCCF80E18093C6000895E0910401CA
:107A2000F09105010995089540E951E08823A1F0FE
:107A30002D9A28EE33E0FA013197F1F721503040CA
:107A4000D1F72D9828EE33E0FA013197F1F7215064
:107A50003040D1F7815061F708953F924F925F9285
:107A60006F927F928F929F92AF92BF92CF92DF924E
:107A7000EF92FF920F931F93CF93DF93000080E16B
:107A80008093C4001092C50088E18093C10086E015
:107A90008093C2005098589A259A81E00E94143D24
:107AA00024E1F22E9EE1E92E85E9D82E0FE0C02ECA
:107AB00010E1B12EAA24A394B1E49B2EA6E58A2E50
:107AC000F2E57F2EE0E26E2E79E4572E63E5462E36
:107AD00050E5352E0E94763C8033B1F18133B9F107
:107AE000803409F46FC0813409F476C0823409F41B
:107AF00085C0853409F488C0803531F1823521F1A3
:107B0000813511F1853509F485C0863509F48DC0BC
:107B1000843609F496C0843709F403C1853709F423
:107B200072C1863709F466C0809103018F5F80932C
:107B30000301853079F6E0910401F0910501099582
:107B40000E94763C803351F60E94F33CC3CF0E94E2
:107B5000763C803249F78091C00085FFFCCFF092DF
:107B6000C6008091C00085FFFCCF9092C600809136
:107B7000C00085FFFCCF8092C6008091C00085FFC9
:107B8000FCCF7092C6008091C00085FFFCCF609250
:107B9000C6008091C00085FFFCCF5092C600809146
:107BA000C00085FFFCCF4092C6008091C00085FFD9
:107BB000FCCF3092C6008091C00085FFFCCFB09210
:107BC000C60088CF0E94763C863808F4BDCF0E945C
:107BD000763C0E94F33C7ECF0E94763C803809F4CC
:107BE0009CC0813809F40BC1823809F43CC1883942
:107BF00009F48FC080E00E94C73C6CCF84E10E94F2
:107C0000BD3C0E94F33C66CF85E00E94BD3C0E94D3
:107C1000F33C60CF0E94763C809306010E94763C44
:107C2000809307010E94F33C55CF0E94763C80333D
:107C300009F41DC183E00E94BD3C80E00E94C73C66
:107C400049CF0E94763C809309020E94763C809343
:107C5000080280910C028E7F80930C020E94763C79
:107C6000853409F415C18091080290910902892B8D
:107C700089F000E010E00E94763CF801E85FFE4FDA
:107C800080830F5F1F4F80910802909109020817AF
:107C9000190788F30E94763C803209F045CF809125
:107CA0000C0280FF01C16091060170910701660F0F
:107CB000771F7093070160930601A0910802B091AD
:107CC00009021097C9F0E8E0F1E09B01AD014E0F09
:107CD0005F1FF999FECF32BD21BD819180BDFA9A17
:107CE000F99A2F5F3F4FE417F50799F76A0F7B1F4B
:107CF00070930701609306018091C00085FFFCCF5F
:107D0000F092C6008091C00085FFFCCFB092C60003
:107D1000E1CE83E00E94C73CDDCE82E00E94C73CFA
:107D2000D9CE0E94763C809309020E94763C8093D3
:107D300008028091060190910701880F991F909386
:107D40000701809306010E94763C853409F4A6C0A1
:107D500080910C028E7F80930C020E94763C8032D0
:107D600009F0B8CE8091C00085FFFCCFF092C6002C
:107D7000609108027091090261157105B9F140E046
:107D800050E080910C02A82FA170B82FB27011C0E2
:107D9000BB2309F45CC0E0910601F0910701319624
:107DA000F0930701E09306014F5F5F4F46175707B7
:107DB000E8F4AA2369F3F999FECF209106013091E6
:107DC000070132BD21BDF89A90B58091C00085FFB2
:107DD000FCCF9093C6002F5F3F4F30930701209355
:107DE00006014F5F5F4F4617570718F38091C00099
:107DF00085FDE5CE8091C00085FFF8CFE0CE81E023
:107E00000E94C73C67CE0E94763C803209F08CCE3F
:107E10008091C00085FFFCCFF092C6008091C00029
:107E200085FFFCCFE092C6008091C00085FFFCCFAB
:107E3000D092C6008091C00085FFFCCFC092C600E2
:107E40008091C00085FFFCCFB092C60043CEE09188
:107E50000601F091070194918091C00085FFFCCF4D
:107E60009093C6009CCF80E10E94C73C33CE0E9415
:107E7000763C0E94763C182F0E94763C112309F430
:107E800083C0113009F484C08FE00E94C73C22CE29
:107E900080910C02816080930C02E5CE80910C02EF
:107EA000816080930C0259CF809107018823880F4D
:107EB000880B8A2180930B02809106019091070123
:107EC000880F991F90930701809306018091080203
:107ED00080FF09C080910802909109020196909359
:107EE000090280930802F894F999FECF1127E091D6
:107EF0000601F0910701C8E0D1E08091080290915D
:107F00000902103091F40091570001700130D9F34B
:107F100003E000935700E89500915700017001308D
:107F2000D9F301E100935700E89509901990009169
:107F3000570001700130D9F301E000935700E89534
:107F40001395103498F011270091570001700130FB
:107F5000D9F305E000935700E895009157000170B0
:107F60000130D9F301E100935700E895329602976A
:107F700009F0C7CF103011F00296E5CF112480919F
:107F8000C00085FFB9CEBCCE8EE10E94C73CA2CD19
:0C7F900085E90E94C73C9ECDF894FFCF0D
:027F9C00800063
:040000030000780081
:00000001FF
